{"contracts/MATICVault.sol":{"MATICVault":{"abi":[{"inputs":[{"internalType":"string","name":"_name","type":"string"},{"internalType":"string","name":"_symbol","type":"string"}],"stateMutability":"nonpayable","type":"constructor"},{"inputs":[{"internalType":"address","name":"spender","type":"address"},{"internalType":"uint256","name":"allowance","type":"uint256"},{"internalType":"uint256","name":"needed","type":"uint256"}],"name":"ERC20InsufficientAllowance","type":"error"},{"inputs":[{"internalType":"address","name":"sender","type":"address"},{"internalType":"uint256","name":"balance","type":"uint256"},{"internalType":"uint256","name":"needed","type":"uint256"}],"name":"ERC20InsufficientBalance","type":"error"},{"inputs":[{"internalType":"address","name":"approver","type":"address"}],"name":"ERC20InvalidApprover","type":"error"},{"inputs":[{"internalType":"address","name":"receiver","type":"address"}],"name":"ERC20InvalidReceiver","type":"error"},{"inputs":[{"internalType":"address","name":"sender","type":"address"}],"name":"ERC20InvalidSender","type":"error"},{"inputs":[{"internalType":"address","name":"spender","type":"address"}],"name":"ERC20InvalidSpender","type":"error"},{"inputs":[{"internalType":"address","name":"owner","type":"address"}],"name":"OwnableInvalidOwner","type":"error"},{"inputs":[{"internalType":"address","name":"account","type":"address"}],"name":"OwnableUnauthorizedAccount","type":"error"},{"inputs":[],"name":"ReentrancyGuardReentrantCall","type":"error"},{"anonymous":false,"inputs":[{"indexed":true,"internalType":"address","name":"owner","type":"address"},{"indexed":true,"internalType":"address","name":"spender","type":"address"},{"indexed":false,"internalType":"uint256","name":"value","type":"uint256"}],"name":"Approval","type":"event"},{"anonymous":false,"inputs":[{"indexed":true,"internalType":"address","name":"user","type":"address"},{"indexed":false,"internalType":"uint256","name":"amount","type":"uint256"},{"indexed":false,"internalType":"uint256","name":"shares","type":"uint256"}],"name":"Deposited","type":"event"},{"anonymous":false,"inputs":[{"indexed":true,"internalType":"address","name":"previousOwner","type":"address"},{"indexed":true,"internalType":"address","name":"newOwner","type":"address"}],"name":"OwnershipTransferred","type":"event"},{"anonymous":false,"inputs":[{"indexed":true,"internalType":"address","name":"strategy","type":"address"},{"indexed":false,"internalType":"uint256","name":"amount","type":"uint256"},{"indexed":false,"internalType":"uint256","name":"timestamp","type":"uint256"}],"name":"Rebalanced","type":"event"},{"anonymous":false,"inputs":[{"indexed":true,"internalType":"address","name":"from","type":"address"},{"indexed":true,"internalType":"address","name":"to","type":"address"},{"indexed":false,"internalType":"uint256","name":"value","type":"uint256"}],"name":"Transfer","type":"event"},{"anonymous":false,"inputs":[{"indexed":true,"internalType":"address","name":"user","type":"address"},{"indexed":false,"internalType":"uint256","name":"amount","type":"uint256"},{"indexed":false,"internalType":"uint256","name":"shares","type":"uint256"}],"name":"Withdrawn","type":"event"},{"stateMutability":"payable","type":"fallback"},{"inputs":[],"name":"aaveAdapter","outputs":[{"internalType":"address","name":"","type":"address"}],"stateMutability":"view","type":"function"},{"inputs":[{"internalType":"address","name":"owner","type":"address"},{"internalType":"address","name":"spender","type":"address"}],"name":"allowance","outputs":[{"internalType":"uint256","name":"","type":"uint256"}],"stateMutability":"view","type":"function"},{"inputs":[{"internalType":"address","name":"spender","type":"address"},{"internalType":"uint256","name":"value","type":"uint256"}],"name":"approve","outputs":[{"internalType":"bool","name":"","type":"bool"}],"stateMutability":"nonpayable","type":"function"},{"inputs":[{"internalType":"address","name":"account","type":"address"}],"name":"balanceOf","outputs":[{"internalType":"uint256","name":"","type":"uint256"}],"stateMutability":"view","type":"function"},{"inputs":[{"internalType":"address","name":"user","type":"address"}],"name":"balanceOfAssets","outputs":[{"internalType":"uint256","name":"","type":"uint256"}],"stateMutability":"view","type":"function"},{"inputs":[],"name":"decimals","outputs":[{"internalType":"uint8","name":"","type":"uint8"}],"stateMutability":"view","type":"function"},{"inputs":[],"name":"deposit","outputs":[{"internalType":"uint256","name":"shares","type":"uint256"}],"stateMutability":"payable","type":"function"},{"inputs":[],"name":"name","outputs":[{"internalType":"string","name":"","type":"string"}],"stateMutability":"view","type":"function"},{"inputs":[],"name":"owner","outputs":[{"internalType":"address","name":"","type":"address"}],"stateMutability":"view","type":"function"},{"inputs":[{"internalType":"uint256","name":"amount","type":"uint256"}],"name":"previewDeposit","outputs":[{"internalType":"uint256","name":"shares","type":"uint256"}],"stateMutability":"view","type":"function"},{"inputs":[{"internalType":"uint256","name":"shares","type":"uint256"}],"name":"previewWithdraw","outputs":[{"internalType":"uint256","name":"amount","type":"uint256"}],"stateMutability":"view","type":"function"},{"inputs":[],"name":"rebalanceExecutor","outputs":[{"internalType":"address","name":"","type":"address"}],"stateMutability":"view","type":"function"},{"inputs":[],"name":"renounceOwnership","outputs":[],"stateMutability":"nonpayable","type":"function"},{"inputs":[{"internalType":"address","name":"_aaveAdapter","type":"address"}],"name":"setAaveAdapter","outputs":[],"stateMutability":"nonpayable","type":"function"},{"inputs":[{"internalType":"address","name":"_rebalanceExecutor","type":"address"}],"name":"setRebalanceExecutor","outputs":[],"stateMutability":"nonpayable","type":"function"},{"inputs":[],"name":"symbol","outputs":[{"internalType":"string","name":"","type":"string"}],"stateMutability":"view","type":"function"},{"inputs":[],"name":"totalAssets","outputs":[{"internalType":"uint256","name":"","type":"uint256"}],"stateMutability":"view","type":"function"},{"inputs":[],"name":"totalSupply","outputs":[{"internalType":"uint256","name":"","type":"uint256"}],"stateMutability":"view","type":"function"},{"inputs":[],"name":"totalValueLocked","outputs":[{"internalType":"uint256","name":"","type":"uint256"}],"stateMutability":"view","type":"function"},{"inputs":[{"internalType":"address","name":"to","type":"address"},{"internalType":"uint256","name":"value","type":"uint256"}],"name":"transfer","outputs":[{"internalType":"bool","name":"","type":"bool"}],"stateMutability":"nonpayable","type":"function"},{"inputs":[{"internalType":"address","name":"from","type":"address"},{"internalType":"address","name":"to","type":"address"},{"internalType":"uint256","name":"value","type":"uint256"}],"name":"transferFrom","outputs":[{"internalType":"bool","name":"","type":"bool"}],"stateMutability":"nonpayable","type":"function"},{"inputs":[{"internalType":"address","name":"newOwner","type":"address"}],"name":"transferOwnership","outputs":[],"stateMutability":"nonpayable","type":"function"},{"inputs":[{"internalType":"uint256","name":"shares","type":"uint256"}],"name":"withdraw","outputs":[{"internalType":"uint256","name":"amount","type":"uint256"}],"stateMutability":"nonpayable","type":"function"},{"stateMutability":"payable","type":"receive"}],"evm":{"bytecode":{"linkReferences":{},"object":"60806040523480156200001157600080fd5b5060405162001438380380620014388339810160408190526200003491620001b6565b3382826003620000458382620002af565b506004620000548282620002af565b5050506001600160a01b0381166200008657604051631e4fbdf760e01b81526000600482015260240160405180910390fd5b62000091816200009f565b50506001600655506200037b565b600580546001600160a01b038381166001600160a01b0319831681179093556040519116919082907f8be0079c531659141344cd1fd0a4f28419497f9722a3daafe3b4186f6b6457e090600090a35050565b634e487b7160e01b600052604160045260246000fd5b600082601f8301126200011957600080fd5b81516001600160401b0380821115620001365762000136620000f1565b604051601f8301601f19908116603f01168101908282118183101715620001615762000161620000f1565b816040528381526020925086838588010111156200017e57600080fd5b600091505b83821015620001a2578582018301518183018401529082019062000183565b600093810190920192909252949350505050565b60008060408385031215620001ca57600080fd5b82516001600160401b0380821115620001e257600080fd5b620001f08683870162000107565b935060208501519150808211156200020757600080fd5b50620002168582860162000107565b9150509250929050565b600181811c908216806200023557607f821691505b6020821081036200025657634e487b7160e01b600052602260045260246000fd5b50919050565b601f821115620002aa57600081815260208120601f850160051c81016020861015620002855750805b601f850160051c820191505b81811015620002a65782815560010162000291565b5050505b505050565b81516001600160401b03811115620002cb57620002cb620000f1565b620002e381620002dc845462000220565b846200025c565b602080601f8311600181146200031b5760008415620003025750858301515b600019600386901b1c1916600185901b178555620002a6565b600085815260208120601f198616915b828110156200034c578886015182559484019460019091019084016200032b565b50858210156200036b5787850151600019600388901b60f8161c191681555b5050505050600190811b01905550565b6110ad806200038b6000396000f3fe6080604052600436106101445760003560e01c80638da5cb5b116100b6578063d0e30db01161006f578063d0e30db0146103b4578063d77ab72d146103bc578063dd62ed3e146103dc578063ec18154e14610422578063ef8b30f714610438578063f2fde38b1461045857610163565b80638da5cb5b146103015780639159b2061461031f57806395d89b411461033f578063a9059cbb14610354578063bdf2070614610374578063ce6e13ff1461039457610163565b806323b872dd1161010857806323b872dd146102205780632e1a7d4d14610240578063313ce56714610260578063571eb1141461027c57806370a08231146102b4578063715018a6146102ea57610163565b806301e1d1141461017557806306fdde0314610199578063095ea7b3146101bb5780630a28a477146101eb57806318160ddd1461020b57610163565b3661016357346007600082825461015b9190610eac565b925050819055005b346007600082825461015b9190610eac565b34801561018157600080fd5b506007545b6040519081526020015b60405180910390f35b3480156101a557600080fd5b506101ae610478565b6040516101909190610ebf565b3480156101c757600080fd5b506101db6101d6366004610f24565b61050a565b6040519015158152602001610190565b3480156101f757600080fd5b50610186610206366004610f4e565b610524565b34801561021757600080fd5b50600254610186565b34801561022c57600080fd5b506101db61023b366004610f67565b610558565b34801561024c57600080fd5b5061018661025b366004610f4e565b61057c565b34801561026c57600080fd5b5060405160128152602001610190565b34801561028857600080fd5b5060085461029c906001600160a01b031681565b6040516001600160a01b039091168152602001610190565b3480156102c057600080fd5b506101866102cf366004610fa3565b6001600160a01b031660009081526020819052604090205490565b3480156102f657600080fd5b506102ff6107d9565b005b34801561030d57600080fd5b506005546001600160a01b031661029c565b34801561032b57600080fd5b5061018661033a366004610fa3565b6107ed565b34801561034b57600080fd5b506101ae610842565b34801561036057600080fd5b506101db61036f366004610f24565b610851565b34801561038057600080fd5b506102ff61038f366004610fa3565b61085f565b3480156103a057600080fd5b506102ff6103af366004610fa3565b6108d1565b610186610943565b3480156103c857600080fd5b5060095461029c906001600160a01b031681565b3480156103e857600080fd5b506101866103f7366004610fbe565b6001600160a01b03918216600090815260016020908152604080832093909416825291909152205490565b34801561042e57600080fd5b5061018660075481565b34801561044457600080fd5b50610186610453366004610f4e565b610a2a565b34801561046457600080fd5b506102ff610473366004610fa3565b610a50565b60606003805461048790610ff1565b80601f01602080910402602001604051908101604052809291908181526020018280546104b390610ff1565b80156105005780601f106104d557610100808354040283529160200191610500565b820191906000526020600020905b8154815290600101906020018083116104e357829003601f168201915b5050505050905090565b600033610518818585610a8e565b60019150505b92915050565b600061052f60025490565b60000361053e57506000919050565b60025460075461054e908461102b565b61051e9190611042565b600033610566858285610aa0565b610571858585610b1f565b506001949350505050565b6000610586610b7e565b600082116105d25760405162461bcd60e51b81526020600482015260146024820152734d7573742077697468647261772073686172657360601b60448201526064015b60405180910390fd5b336000908152602081905260409020548211156106275760405162461bcd60e51b8152602060048201526013602482015272496e73756666696369656e742073686172657360681b60448201526064016105c9565b600254600754610637908461102b565b6106419190611042565b90506000811161068c5760405162461bcd60e51b815260206004820152601660248201527516995c9bc81dda5d1a191c985dd85b08185b5bdd5b9d60521b60448201526064016105c9565b804710156106dc5760405162461bcd60e51b815260206004820152601a60248201527f496e73756666696369656e74207661756c742062616c616e636500000000000060448201526064016105c9565b80600760008282546106ee9190611064565b909155506106fe90503383610ba8565b604051600090339083908381818185875af1925050503d8060008114610740576040519150601f19603f3d011682016040523d82523d6000602084013e610745565b606091505b505090508061078e5760405162461bcd60e51b81526020600482015260156024820152741350551250c81d1c985b9cd9995c8819985a5b1959605a1b60448201526064016105c9565b604080518381526020810185905233917f92ccf450a286a957af52509bc1c9939d1a6a481783e142e41e2499f0bb66ebc6910160405180910390a2506107d46001600655565b919050565b6107e1610be2565b6107eb6000610c0f565b565b6001600160a01b0381166000908152602081905260408120548015806108135750600254155b156108215750600092915050565b600254600754610831908361102b565b61083b9190611042565b9392505050565b60606004805461048790610ff1565b600033610518818585610b1f565b610867610be2565b6001600160a01b0381166108af5760405162461bcd60e51b815260206004820152600f60248201526e496e76616c6964206164647265737360881b60448201526064016105c9565b600880546001600160a01b0319166001600160a01b0392909216919091179055565b6108d9610be2565b6001600160a01b0381166109215760405162461bcd60e51b815260206004820152600f60248201526e496e76616c6964206164647265737360881b60448201526064016105c9565b600980546001600160a01b0319166001600160a01b0392909216919091179055565b600061094d610b7e565b600034116109925760405162461bcd60e51b81526020600482015260126024820152714d757374206465706f736974204d4154494360701b60448201526064016105c9565b6002546000036109a35750346109c0565b6007546002546109b3903461102b565b6109bd9190611042565b90505b34600760008282546109d29190610eac565b909155506109e290503382610c61565b604080513481526020810183905233917f73a19dd210f1a7f902193214c0ee91dd35ee5b4d920cba8d519eca65a7b488ca910160405180910390a2610a276001600655565b90565b6000610a3560025490565b600003610a40575090565b60075460025461054e908461102b565b610a58610be2565b6001600160a01b038116610a8257604051631e4fbdf760e01b8152600060048201526024016105c9565b610a8b81610c0f565b50565b610a9b8383836001610c97565b505050565b6001600160a01b03838116600090815260016020908152604080832093861683529290522054600019811015610b195781811015610b0a57604051637dc7a0d960e11b81526001600160a01b038416600482015260248101829052604481018390526064016105c9565b610b1984848484036000610c97565b50505050565b6001600160a01b038316610b4957604051634b637e8f60e11b8152600060048201526024016105c9565b6001600160a01b038216610b735760405163ec442f0560e01b8152600060048201526024016105c9565b610a9b838383610d6c565b600260065403610ba157604051633ee5aeb560e01b815260040160405180910390fd5b6002600655565b6001600160a01b038216610bd257604051634b637e8f60e11b8152600060048201526024016105c9565b610bde82600083610d6c565b5050565b6005546001600160a01b031633146107eb5760405163118cdaa760e01b81523360048201526024016105c9565b600580546001600160a01b038381166001600160a01b0319831681179093556040519116919082907f8be0079c531659141344cd1fd0a4f28419497f9722a3daafe3b4186f6b6457e090600090a35050565b6001600160a01b038216610c8b5760405163ec442f0560e01b8152600060048201526024016105c9565b610bde60008383610d6c565b6001600160a01b038416610cc15760405163e602df0560e01b8152600060048201526024016105c9565b6001600160a01b038316610ceb57604051634a1406b160e11b8152600060048201526024016105c9565b6001600160a01b0380851660009081526001602090815260408083209387168352929052208290558015610b1957826001600160a01b0316846001600160a01b03167f8c5be1e5ebec7d5bd14f71427d1e84f3dd0314c0f7b2291e5b200ac8c7c3b92584604051610d5e91815260200190565b60405180910390a350505050565b6001600160a01b038316610d97578060026000828254610d8c9190610eac565b90915550610e099050565b6001600160a01b03831660009081526020819052604090205481811015610dea5760405163391434e360e21b81526001600160a01b038516600482015260248101829052604481018390526064016105c9565b6001600160a01b03841660009081526020819052604090209082900390555b6001600160a01b038216610e2557600280548290039055610e44565b6001600160a01b03821660009081526020819052604090208054820190555b816001600160a01b0316836001600160a01b03167fddf252ad1be2c89b69c2b068fc378daa952ba7f163c4a11628f55a4df523b3ef83604051610e8991815260200190565b60405180910390a3505050565b634e487b7160e01b600052601160045260246000fd5b8082018082111561051e5761051e610e96565b600060208083528351808285015260005b81811015610eec57858101830151858201604001528201610ed0565b506000604082860101526040601f19601f8301168501019250505092915050565b80356001600160a01b03811681146107d457600080fd5b60008060408385031215610f3757600080fd5b610f4083610f0d565b946020939093013593505050565b600060208284031215610f6057600080fd5b5035919050565b600080600060608486031215610f7c57600080fd5b610f8584610f0d565b9250610f9360208501610f0d565b9150604084013590509250925092565b600060208284031215610fb557600080fd5b61083b82610f0d565b60008060408385031215610fd157600080fd5b610fda83610f0d565b9150610fe860208401610f0d565b90509250929050565b600181811c9082168061100557607f821691505b60208210810361102557634e487b7160e01b600052602260045260246000fd5b50919050565b808202811582820484141761051e5761051e610e96565b60008261105f57634e487b7160e01b600052601260045260246000fd5b500490565b8181038181111561051e5761051e610e9656fea264697066735822122036104a71432e3ccbbf639726f55aa9bcbdea5a191c7b90ec14ba6eac469febf864736f6c63430008140033","opcodes":"PUSH1 0x80 PUSH1 0x40 MSTORE CALLVALUE DUP1 ISZERO PUSH3 0x11 JUMPI PUSH1 0x0 DUP1 REVERT JUMPDEST POP PUSH1 0x40 MLOAD PUSH3 0x1438 CODESIZE SUB DUP1 PUSH3 0x1438 DUP4 CODECOPY DUP2 ADD PUSH1 0x40 DUP2 SWAP1 MSTORE PUSH3 0x34 SWAP2 PUSH3 0x1B6 JUMP JUMPDEST CALLER DUP3 DUP3 PUSH1 0x3 PUSH3 0x45 DUP4 DUP3 PUSH3 0x2AF JUMP JUMPDEST POP PUSH1 0x4 PUSH3 0x54 DUP3 DUP3 PUSH3 0x2AF JUMP JUMPDEST POP POP POP PUSH1 0x1 PUSH1 0x1 PUSH1 0xA0 SHL SUB DUP2 AND PUSH3 0x86 JUMPI PUSH1 0x40 MLOAD PUSH4 0x1E4FBDF7 PUSH1 0xE0 SHL DUP2 MSTORE PUSH1 0x0 PUSH1 0x4 DUP3 ADD MSTORE PUSH1 0x24 ADD PUSH1 0x40 MLOAD DUP1 SWAP2 SUB SWAP1 REVERT JUMPDEST PUSH3 0x91 DUP2 PUSH3 0x9F JUMP JUMPDEST POP POP PUSH1 0x1 PUSH1 0x6 SSTORE POP PUSH3 0x37B JUMP JUMPDEST PUSH1 0x5 DUP1 SLOAD PUSH1 0x1 PUSH1 0x1 PUSH1 0xA0 SHL SUB DUP4 DUP2 AND PUSH1 0x1 PUSH1 0x1 PUSH1 0xA0 SHL SUB NOT DUP4 AND DUP2 OR SWAP1 SWAP4 SSTORE PUSH1 0x40 MLOAD SWAP2 AND SWAP2 SWAP1 DUP3 SWAP1 PUSH32 0x8BE0079C531659141344CD1FD0A4F28419497F9722A3DAAFE3B4186F6B6457E0 SWAP1 PUSH1 0x0 SWAP1 LOG3 POP POP JUMP JUMPDEST PUSH4 0x4E487B71 PUSH1 0xE0 SHL PUSH1 0x0 MSTORE PUSH1 0x41 PUSH1 0x4 MSTORE PUSH1 0x24 PUSH1 0x0 REVERT JUMPDEST PUSH1 0x0 DUP3 PUSH1 0x1F DUP4 ADD SLT PUSH3 0x119 JUMPI PUSH1 0x0 DUP1 REVERT JUMPDEST DUP2 MLOAD PUSH1 0x1 PUSH1 0x1 PUSH1 0x40 SHL SUB DUP1 DUP3 GT ISZERO PUSH3 0x136 JUMPI PUSH3 0x136 PUSH3 0xF1 JUMP JUMPDEST PUSH1 0x40 MLOAD PUSH1 0x1F DUP4 ADD PUSH1 0x1F NOT SWAP1 DUP2 AND PUSH1 0x3F ADD AND DUP2 ADD SWAP1 DUP3 DUP3 GT DUP2 DUP4 LT OR ISZERO PUSH3 0x161 JUMPI PUSH3 0x161 PUSH3 0xF1 JUMP JUMPDEST DUP2 PUSH1 0x40 MSTORE DUP4 DUP2 MSTORE PUSH1 0x20 SWAP3 POP DUP7 DUP4 DUP6 DUP9 ADD ADD GT ISZERO PUSH3 0x17E JUMPI PUSH1 0x0 DUP1 REVERT JUMPDEST PUSH1 0x0 SWAP2 POP JUMPDEST DUP4 DUP3 LT ISZERO PUSH3 0x1A2 JUMPI DUP6 DUP3 ADD DUP4 ADD MLOAD DUP2 DUP4 ADD DUP5 ADD MSTORE SWAP1 DUP3 ADD SWAP1 PUSH3 0x183 JUMP JUMPDEST PUSH1 0x0 SWAP4 DUP2 ADD SWAP1 SWAP3 ADD SWAP3 SWAP1 SWAP3 MSTORE SWAP5 SWAP4 POP POP POP POP JUMP JUMPDEST PUSH1 0x0 DUP1 PUSH1 0x40 DUP4 DUP6 SUB SLT ISZERO PUSH3 0x1CA JUMPI PUSH1 0x0 DUP1 REVERT JUMPDEST DUP3 MLOAD PUSH1 0x1 PUSH1 0x1 PUSH1 0x40 SHL SUB DUP1 DUP3 GT ISZERO PUSH3 0x1E2 JUMPI PUSH1 0x0 DUP1 REVERT JUMPDEST PUSH3 0x1F0 DUP7 DUP4 DUP8 ADD PUSH3 0x107 JUMP JUMPDEST SWAP4 POP PUSH1 0x20 DUP6 ADD MLOAD SWAP2 POP DUP1 DUP3 GT ISZERO PUSH3 0x207 JUMPI PUSH1 0x0 DUP1 REVERT JUMPDEST POP PUSH3 0x216 DUP6 DUP3 DUP7 ADD PUSH3 0x107 JUMP JUMPDEST SWAP2 POP POP SWAP3 POP SWAP3 SWAP1 POP JUMP JUMPDEST PUSH1 0x1 DUP2 DUP2 SHR SWAP1 DUP3 AND DUP1 PUSH3 0x235 JUMPI PUSH1 0x7F DUP3 AND SWAP2 POP JUMPDEST PUSH1 0x20 DUP3 LT DUP2 SUB PUSH3 0x256 JUMPI PUSH4 0x4E487B71 PUSH1 0xE0 SHL PUSH1 0x0 MSTORE PUSH1 0x22 PUSH1 0x4 MSTORE PUSH1 0x24 PUSH1 0x0 REVERT JUMPDEST POP SWAP2 SWAP1 POP JUMP JUMPDEST PUSH1 0x1F DUP3 GT ISZERO PUSH3 0x2AA JUMPI PUSH1 0x0 DUP2 DUP2 MSTORE PUSH1 0x20 DUP2 KECCAK256 PUSH1 0x1F DUP6 ADD PUSH1 0x5 SHR DUP2 ADD PUSH1 0x20 DUP7 LT ISZERO PUSH3 0x285 JUMPI POP DUP1 JUMPDEST PUSH1 0x1F DUP6 ADD PUSH1 0x5 SHR DUP3 ADD SWAP2 POP JUMPDEST DUP2 DUP2 LT ISZERO PUSH3 0x2A6 JUMPI DUP3 DUP2 SSTORE PUSH1 0x1 ADD PUSH3 0x291 JUMP JUMPDEST POP POP POP JUMPDEST POP POP POP JUMP JUMPDEST DUP2 MLOAD PUSH1 0x1 PUSH1 0x1 PUSH1 0x40 SHL SUB DUP2 GT ISZERO PUSH3 0x2CB JUMPI PUSH3 0x2CB PUSH3 0xF1 JUMP JUMPDEST PUSH3 0x2E3 DUP2 PUSH3 0x2DC DUP5 SLOAD PUSH3 0x220 JUMP JUMPDEST DUP5 PUSH3 0x25C JUMP JUMPDEST PUSH1 0x20 DUP1 PUSH1 0x1F DUP4 GT PUSH1 0x1 DUP2 EQ PUSH3 0x31B JUMPI PUSH1 0x0 DUP5 ISZERO PUSH3 0x302 JUMPI POP DUP6 DUP4 ADD MLOAD JUMPDEST PUSH1 0x0 NOT PUSH1 0x3 DUP7 SWAP1 SHL SHR NOT AND PUSH1 0x1 DUP6 SWAP1 SHL OR DUP6 SSTORE PUSH3 0x2A6 JUMP JUMPDEST PUSH1 0x0 DUP6 DUP2 MSTORE PUSH1 0x20 DUP2 KECCAK256 PUSH1 0x1F NOT DUP7 AND SWAP2 JUMPDEST DUP3 DUP2 LT ISZERO PUSH3 0x34C JUMPI DUP9 DUP7 ADD MLOAD DUP3 SSTORE SWAP5 DUP5 ADD SWAP5 PUSH1 0x1 SWAP1 SWAP2 ADD SWAP1 DUP5 ADD PUSH3 0x32B JUMP JUMPDEST POP DUP6 DUP3 LT ISZERO PUSH3 0x36B JUMPI DUP8 DUP6 ADD MLOAD PUSH1 0x0 NOT PUSH1 0x3 DUP9 SWAP1 SHL PUSH1 0xF8 AND SHR NOT AND DUP2 SSTORE JUMPDEST POP POP POP POP POP PUSH1 0x1 SWAP1 DUP2 SHL ADD SWAP1 SSTORE POP JUMP JUMPDEST PUSH2 0x10AD DUP1 PUSH3 0x38B PUSH1 0x0 CODECOPY PUSH1 0x0 RETURN INVALID PUSH1 0x80 PUSH1 0x40 MSTORE PUSH1 0x4 CALLDATASIZE LT PUSH2 0x144 JUMPI PUSH1 0x0 CALLDATALOAD PUSH1 0xE0 SHR DUP1 PUSH4 0x8DA5CB5B GT PUSH2 0xB6 JUMPI DUP1 PUSH4 0xD0E30DB0 GT PUSH2 0x6F JUMPI DUP1 PUSH4 0xD0E30DB0 EQ PUSH2 0x3B4 JUMPI DUP1 PUSH4 0xD77AB72D EQ PUSH2 0x3BC JUMPI DUP1 PUSH4 0xDD62ED3E EQ PUSH2 0x3DC JUMPI DUP1 PUSH4 0xEC18154E EQ PUSH2 0x422 JUMPI DUP1 PUSH4 0xEF8B30F7 EQ PUSH2 0x438 JUMPI DUP1 PUSH4 0xF2FDE38B EQ PUSH2 0x458 JUMPI PUSH2 0x163 JUMP JUMPDEST DUP1 PUSH4 0x8DA5CB5B EQ PUSH2 0x301 JUMPI DUP1 PUSH4 0x9159B206 EQ PUSH2 0x31F JUMPI DUP1 PUSH4 0x95D89B41 EQ PUSH2 0x33F JUMPI DUP1 PUSH4 0xA9059CBB EQ PUSH2 0x354 JUMPI DUP1 PUSH4 0xBDF20706 EQ PUSH2 0x374 JUMPI DUP1 PUSH4 0xCE6E13FF EQ PUSH2 0x394 JUMPI PUSH2 0x163 JUMP JUMPDEST DUP1 PUSH4 0x23B872DD GT PUSH2 0x108 JUMPI DUP1 PUSH4 0x23B872DD EQ PUSH2 0x220 JUMPI DUP1 PUSH4 0x2E1A7D4D EQ PUSH2 0x240 JUMPI DUP1 PUSH4 0x313CE567 EQ PUSH2 0x260 JUMPI DUP1 PUSH4 0x571EB114 EQ PUSH2 0x27C JUMPI DUP1 PUSH4 0x70A08231 EQ PUSH2 0x2B4 JUMPI DUP1 PUSH4 0x715018A6 EQ PUSH2 0x2EA JUMPI PUSH2 0x163 JUMP JUMPDEST DUP1 PUSH4 0x1E1D114 EQ PUSH2 0x175 JUMPI DUP1 PUSH4 0x6FDDE03 EQ PUSH2 0x199 JUMPI DUP1 PUSH4 0x95EA7B3 EQ PUSH2 0x1BB JUMPI DUP1 PUSH4 0xA28A477 EQ PUSH2 0x1EB JUMPI DUP1 PUSH4 0x18160DDD EQ PUSH2 0x20B JUMPI PUSH2 0x163 JUMP JUMPDEST CALLDATASIZE PUSH2 0x163 JUMPI CALLVALUE PUSH1 0x7 PUSH1 0x0 DUP3 DUP3 SLOAD PUSH2 0x15B SWAP2 SWAP1 PUSH2 0xEAC JUMP JUMPDEST SWAP3 POP POP DUP2 SWAP1 SSTORE STOP JUMPDEST CALLVALUE PUSH1 0x7 PUSH1 0x0 DUP3 DUP3 SLOAD PUSH2 0x15B SWAP2 SWAP1 PUSH2 0xEAC JUMP JUMPDEST CALLVALUE DUP1 ISZERO PUSH2 0x181 JUMPI PUSH1 0x0 DUP1 REVERT JUMPDEST POP PUSH1 0x7 SLOAD JUMPDEST PUSH1 0x40 MLOAD SWAP1 DUP2 MSTORE PUSH1 0x20 ADD JUMPDEST PUSH1 0x40 MLOAD DUP1 SWAP2 SUB SWAP1 RETURN JUMPDEST CALLVALUE DUP1 ISZERO PUSH2 0x1A5 JUMPI PUSH1 0x0 DUP1 REVERT JUMPDEST POP PUSH2 0x1AE PUSH2 0x478 JUMP JUMPDEST PUSH1 0x40 MLOAD PUSH2 0x190 SWAP2 SWAP1 PUSH2 0xEBF JUMP JUMPDEST CALLVALUE DUP1 ISZERO PUSH2 0x1C7 JUMPI PUSH1 0x0 DUP1 REVERT JUMPDEST POP PUSH2 0x1DB PUSH2 0x1D6 CALLDATASIZE PUSH1 0x4 PUSH2 0xF24 JUMP JUMPDEST PUSH2 0x50A JUMP JUMPDEST PUSH1 0x40 MLOAD SWAP1 ISZERO ISZERO DUP2 MSTORE PUSH1 0x20 ADD PUSH2 0x190 JUMP JUMPDEST CALLVALUE DUP1 ISZERO PUSH2 0x1F7 JUMPI PUSH1 0x0 DUP1 REVERT JUMPDEST POP PUSH2 0x186 PUSH2 0x206 CALLDATASIZE PUSH1 0x4 PUSH2 0xF4E JUMP JUMPDEST PUSH2 0x524 JUMP JUMPDEST CALLVALUE DUP1 ISZERO PUSH2 0x217 JUMPI PUSH1 0x0 DUP1 REVERT JUMPDEST POP PUSH1 0x2 SLOAD PUSH2 0x186 JUMP JUMPDEST CALLVALUE DUP1 ISZERO PUSH2 0x22C JUMPI PUSH1 0x0 DUP1 REVERT JUMPDEST POP PUSH2 0x1DB PUSH2 0x23B CALLDATASIZE PUSH1 0x4 PUSH2 0xF67 JUMP JUMPDEST PUSH2 0x558 JUMP JUMPDEST CALLVALUE DUP1 ISZERO PUSH2 0x24C JUMPI PUSH1 0x0 DUP1 REVERT JUMPDEST POP PUSH2 0x186 PUSH2 0x25B CALLDATASIZE PUSH1 0x4 PUSH2 0xF4E JUMP JUMPDEST PUSH2 0x57C JUMP JUMPDEST CALLVALUE DUP1 ISZERO PUSH2 0x26C JUMPI PUSH1 0x0 DUP1 REVERT JUMPDEST POP PUSH1 0x40 MLOAD PUSH1 0x12 DUP2 MSTORE PUSH1 0x20 ADD PUSH2 0x190 JUMP JUMPDEST CALLVALUE DUP1 ISZERO PUSH2 0x288 JUMPI PUSH1 0x0 DUP1 REVERT JUMPDEST POP PUSH1 0x8 SLOAD PUSH2 0x29C SWAP1 PUSH1 0x1 PUSH1 0x1 PUSH1 0xA0 SHL SUB AND DUP2 JUMP JUMPDEST PUSH1 0x40 MLOAD PUSH1 0x1 PUSH1 0x1 PUSH1 0xA0 SHL SUB SWAP1 SWAP2 AND DUP2 MSTORE PUSH1 0x20 ADD PUSH2 0x190 JUMP JUMPDEST CALLVALUE DUP1 ISZERO PUSH2 0x2C0 JUMPI PUSH1 0x0 DUP1 REVERT JUMPDEST POP PUSH2 0x186 PUSH2 0x2CF CALLDATASIZE PUSH1 0x4 PUSH2 0xFA3 JUMP JUMPDEST PUSH1 0x1 PUSH1 0x1 PUSH1 0xA0 SHL SUB AND PUSH1 0x0 SWAP1 DUP2 MSTORE PUSH1 0x20 DUP2 SWAP1 MSTORE PUSH1 0x40 SWAP1 KECCAK256 SLOAD SWAP1 JUMP JUMPDEST CALLVALUE DUP1 ISZERO PUSH2 0x2F6 JUMPI PUSH1 0x0 DUP1 REVERT JUMPDEST POP PUSH2 0x2FF PUSH2 0x7D9 JUMP JUMPDEST STOP JUMPDEST CALLVALUE DUP1 ISZERO PUSH2 0x30D JUMPI PUSH1 0x0 DUP1 REVERT JUMPDEST POP PUSH1 0x5 SLOAD PUSH1 0x1 PUSH1 0x1 PUSH1 0xA0 SHL SUB AND PUSH2 0x29C JUMP JUMPDEST CALLVALUE DUP1 ISZERO PUSH2 0x32B JUMPI PUSH1 0x0 DUP1 REVERT JUMPDEST POP PUSH2 0x186 PUSH2 0x33A CALLDATASIZE PUSH1 0x4 PUSH2 0xFA3 JUMP JUMPDEST PUSH2 0x7ED JUMP JUMPDEST CALLVALUE DUP1 ISZERO PUSH2 0x34B JUMPI PUSH1 0x0 DUP1 REVERT JUMPDEST POP PUSH2 0x1AE PUSH2 0x842 JUMP JUMPDEST CALLVALUE DUP1 ISZERO PUSH2 0x360 JUMPI PUSH1 0x0 DUP1 REVERT JUMPDEST POP PUSH2 0x1DB PUSH2 0x36F CALLDATASIZE PUSH1 0x4 PUSH2 0xF24 JUMP JUMPDEST PUSH2 0x851 JUMP JUMPDEST CALLVALUE DUP1 ISZERO PUSH2 0x380 JUMPI PUSH1 0x0 DUP1 REVERT JUMPDEST POP PUSH2 0x2FF PUSH2 0x38F CALLDATASIZE PUSH1 0x4 PUSH2 0xFA3 JUMP JUMPDEST PUSH2 0x85F JUMP JUMPDEST CALLVALUE DUP1 ISZERO PUSH2 0x3A0 JUMPI PUSH1 0x0 DUP1 REVERT JUMPDEST POP PUSH2 0x2FF PUSH2 0x3AF CALLDATASIZE PUSH1 0x4 PUSH2 0xFA3 JUMP JUMPDEST PUSH2 0x8D1 JUMP JUMPDEST PUSH2 0x186 PUSH2 0x943 JUMP JUMPDEST CALLVALUE DUP1 ISZERO PUSH2 0x3C8 JUMPI PUSH1 0x0 DUP1 REVERT JUMPDEST POP PUSH1 0x9 SLOAD PUSH2 0x29C SWAP1 PUSH1 0x1 PUSH1 0x1 PUSH1 0xA0 SHL SUB AND DUP2 JUMP JUMPDEST CALLVALUE DUP1 ISZERO PUSH2 0x3E8 JUMPI PUSH1 0x0 DUP1 REVERT JUMPDEST POP PUSH2 0x186 PUSH2 0x3F7 CALLDATASIZE PUSH1 0x4 PUSH2 0xFBE JUMP JUMPDEST PUSH1 0x1 PUSH1 0x1 PUSH1 0xA0 SHL SUB SWAP2 DUP3 AND PUSH1 0x0 SWAP1 DUP2 MSTORE PUSH1 0x1 PUSH1 0x20 SWAP1 DUP2 MSTORE PUSH1 0x40 DUP1 DUP4 KECCAK256 SWAP4 SWAP1 SWAP5 AND DUP3 MSTORE SWAP2 SWAP1 SWAP2 MSTORE KECCAK256 SLOAD SWAP1 JUMP JUMPDEST CALLVALUE DUP1 ISZERO PUSH2 0x42E JUMPI PUSH1 0x0 DUP1 REVERT JUMPDEST POP PUSH2 0x186 PUSH1 0x7 SLOAD DUP2 JUMP JUMPDEST CALLVALUE DUP1 ISZERO PUSH2 0x444 JUMPI PUSH1 0x0 DUP1 REVERT JUMPDEST POP PUSH2 0x186 PUSH2 0x453 CALLDATASIZE PUSH1 0x4 PUSH2 0xF4E JUMP JUMPDEST PUSH2 0xA2A JUMP JUMPDEST CALLVALUE DUP1 ISZERO PUSH2 0x464 JUMPI PUSH1 0x0 DUP1 REVERT JUMPDEST POP PUSH2 0x2FF PUSH2 0x473 CALLDATASIZE PUSH1 0x4 PUSH2 0xFA3 JUMP JUMPDEST PUSH2 0xA50 JUMP JUMPDEST PUSH1 0x60 PUSH1 0x3 DUP1 SLOAD PUSH2 0x487 SWAP1 PUSH2 0xFF1 JUMP JUMPDEST DUP1 PUSH1 0x1F ADD PUSH1 0x20 DUP1 SWAP2 DIV MUL PUSH1 0x20 ADD PUSH1 0x40 MLOAD SWAP1 DUP2 ADD PUSH1 0x40 MSTORE DUP1 SWAP3 SWAP2 SWAP1 DUP2 DUP2 MSTORE PUSH1 0x20 ADD DUP3 DUP1 SLOAD PUSH2 0x4B3 SWAP1 PUSH2 0xFF1 JUMP JUMPDEST DUP1 ISZERO PUSH2 0x500 JUMPI DUP1 PUSH1 0x1F LT PUSH2 0x4D5 JUMPI PUSH2 0x100 DUP1 DUP4 SLOAD DIV MUL DUP4 MSTORE SWAP2 PUSH1 0x20 ADD SWAP2 PUSH2 0x500 JUMP JUMPDEST DUP3 ADD SWAP2 SWAP1 PUSH1 0x0 MSTORE PUSH1 0x20 PUSH1 0x0 KECCAK256 SWAP1 JUMPDEST DUP2 SLOAD DUP2 MSTORE SWAP1 PUSH1 0x1 ADD SWAP1 PUSH1 0x20 ADD DUP1 DUP4 GT PUSH2 0x4E3 JUMPI DUP3 SWAP1 SUB PUSH1 0x1F AND DUP3 ADD SWAP2 JUMPDEST POP POP POP POP POP SWAP1 POP SWAP1 JUMP JUMPDEST PUSH1 0x0 CALLER PUSH2 0x518 DUP2 DUP6 DUP6 PUSH2 0xA8E JUMP JUMPDEST PUSH1 0x1 SWAP2 POP POP JUMPDEST SWAP3 SWAP2 POP POP JUMP JUMPDEST PUSH1 0x0 PUSH2 0x52F PUSH1 0x2 SLOAD SWAP1 JUMP JUMPDEST PUSH1 0x0 SUB PUSH2 0x53E JUMPI POP PUSH1 0x0 SWAP2 SWAP1 POP JUMP JUMPDEST PUSH1 0x2 SLOAD PUSH1 0x7 SLOAD PUSH2 0x54E SWAP1 DUP5 PUSH2 0x102B JUMP JUMPDEST PUSH2 0x51E SWAP2 SWAP1 PUSH2 0x1042 JUMP JUMPDEST PUSH1 0x0 CALLER PUSH2 0x566 DUP6 DUP3 DUP6 PUSH2 0xAA0 JUMP JUMPDEST PUSH2 0x571 DUP6 DUP6 DUP6 PUSH2 0xB1F JUMP JUMPDEST POP PUSH1 0x1 SWAP5 SWAP4 POP POP POP POP JUMP JUMPDEST PUSH1 0x0 PUSH2 0x586 PUSH2 0xB7E JUMP JUMPDEST PUSH1 0x0 DUP3 GT PUSH2 0x5D2 JUMPI PUSH1 0x40 MLOAD PUSH3 0x461BCD PUSH1 0xE5 SHL DUP2 MSTORE PUSH1 0x20 PUSH1 0x4 DUP3 ADD MSTORE PUSH1 0x14 PUSH1 0x24 DUP3 ADD MSTORE PUSH20 0x4D75737420776974686472617720736861726573 PUSH1 0x60 SHL PUSH1 0x44 DUP3 ADD MSTORE PUSH1 0x64 ADD JUMPDEST PUSH1 0x40 MLOAD DUP1 SWAP2 SUB SWAP1 REVERT JUMPDEST CALLER PUSH1 0x0 SWAP1 DUP2 MSTORE PUSH1 0x20 DUP2 SWAP1 MSTORE PUSH1 0x40 SWAP1 KECCAK256 SLOAD DUP3 GT ISZERO PUSH2 0x627 JUMPI PUSH1 0x40 MLOAD PUSH3 0x461BCD PUSH1 0xE5 SHL DUP2 MSTORE PUSH1 0x20 PUSH1 0x4 DUP3 ADD MSTORE PUSH1 0x13 PUSH1 0x24 DUP3 ADD MSTORE PUSH19 0x496E73756666696369656E7420736861726573 PUSH1 0x68 SHL PUSH1 0x44 DUP3 ADD MSTORE PUSH1 0x64 ADD PUSH2 0x5C9 JUMP JUMPDEST PUSH1 0x2 SLOAD PUSH1 0x7 SLOAD PUSH2 0x637 SWAP1 DUP5 PUSH2 0x102B JUMP JUMPDEST PUSH2 0x641 SWAP2 SWAP1 PUSH2 0x1042 JUMP JUMPDEST SWAP1 POP PUSH1 0x0 DUP2 GT PUSH2 0x68C JUMPI PUSH1 0x40 MLOAD PUSH3 0x461BCD PUSH1 0xE5 SHL DUP2 MSTORE PUSH1 0x20 PUSH1 0x4 DUP3 ADD MSTORE PUSH1 0x16 PUSH1 0x24 DUP3 ADD MSTORE PUSH22 0x16995C9BC81DDA5D1A191C985DD85B08185B5BDD5B9D PUSH1 0x52 SHL PUSH1 0x44 DUP3 ADD MSTORE PUSH1 0x64 ADD PUSH2 0x5C9 JUMP JUMPDEST DUP1 SELFBALANCE LT ISZERO PUSH2 0x6DC JUMPI PUSH1 0x40 MLOAD PUSH3 0x461BCD PUSH1 0xE5 SHL DUP2 MSTORE PUSH1 0x20 PUSH1 0x4 DUP3 ADD MSTORE PUSH1 0x1A PUSH1 0x24 DUP3 ADD MSTORE PUSH32 0x496E73756666696369656E74207661756C742062616C616E6365000000000000 PUSH1 0x44 DUP3 ADD MSTORE PUSH1 0x64 ADD PUSH2 0x5C9 JUMP JUMPDEST DUP1 PUSH1 0x7 PUSH1 0x0 DUP3 DUP3 SLOAD PUSH2 0x6EE SWAP2 SWAP1 PUSH2 0x1064 JUMP JUMPDEST SWAP1 SWAP2 SSTORE POP PUSH2 0x6FE SWAP1 POP CALLER DUP4 PUSH2 0xBA8 JUMP JUMPDEST PUSH1 0x40 MLOAD PUSH1 0x0 SWAP1 CALLER SWAP1 DUP4 SWAP1 DUP4 DUP2 DUP2 DUP2 DUP6 DUP8 GAS CALL SWAP3 POP POP POP RETURNDATASIZE DUP1 PUSH1 0x0 DUP2 EQ PUSH2 0x740 JUMPI PUSH1 0x40 MLOAD SWAP2 POP PUSH1 0x1F NOT PUSH1 0x3F RETURNDATASIZE ADD AND DUP3 ADD PUSH1 0x40 MSTORE RETURNDATASIZE DUP3 MSTORE RETURNDATASIZE PUSH1 0x0 PUSH1 0x20 DUP5 ADD RETURNDATACOPY PUSH2 0x745 JUMP JUMPDEST PUSH1 0x60 SWAP2 POP JUMPDEST POP POP SWAP1 POP DUP1 PUSH2 0x78E JUMPI PUSH1 0x40 MLOAD PUSH3 0x461BCD PUSH1 0xE5 SHL DUP2 MSTORE PUSH1 0x20 PUSH1 0x4 DUP3 ADD MSTORE PUSH1 0x15 PUSH1 0x24 DUP3 ADD MSTORE PUSH21 0x1350551250C81D1C985B9CD9995C8819985A5B1959 PUSH1 0x5A SHL PUSH1 0x44 DUP3 ADD MSTORE PUSH1 0x64 ADD PUSH2 0x5C9 JUMP JUMPDEST PUSH1 0x40 DUP1 MLOAD DUP4 DUP2 MSTORE PUSH1 0x20 DUP2 ADD DUP6 SWAP1 MSTORE CALLER SWAP2 PUSH32 0x92CCF450A286A957AF52509BC1C9939D1A6A481783E142E41E2499F0BB66EBC6 SWAP2 ADD PUSH1 0x40 MLOAD DUP1 SWAP2 SUB SWAP1 LOG2 POP PUSH2 0x7D4 PUSH1 0x1 PUSH1 0x6 SSTORE JUMP JUMPDEST SWAP2 SWAP1 POP JUMP JUMPDEST PUSH2 0x7E1 PUSH2 0xBE2 JUMP JUMPDEST PUSH2 0x7EB PUSH1 0x0 PUSH2 0xC0F JUMP JUMPDEST JUMP JUMPDEST PUSH1 0x1 PUSH1 0x1 PUSH1 0xA0 SHL SUB DUP2 AND PUSH1 0x0 SWAP1 DUP2 MSTORE PUSH1 0x20 DUP2 SWAP1 MSTORE PUSH1 0x40 DUP2 KECCAK256 SLOAD DUP1 ISZERO DUP1 PUSH2 0x813 JUMPI POP PUSH1 0x2 SLOAD ISZERO JUMPDEST ISZERO PUSH2 0x821 JUMPI POP PUSH1 0x0 SWAP3 SWAP2 POP POP JUMP JUMPDEST PUSH1 0x2 SLOAD PUSH1 0x7 SLOAD PUSH2 0x831 SWAP1 DUP4 PUSH2 0x102B JUMP JUMPDEST PUSH2 0x83B SWAP2 SWAP1 PUSH2 0x1042 JUMP JUMPDEST SWAP4 SWAP3 POP POP POP JUMP JUMPDEST PUSH1 0x60 PUSH1 0x4 DUP1 SLOAD PUSH2 0x487 SWAP1 PUSH2 0xFF1 JUMP JUMPDEST PUSH1 0x0 CALLER PUSH2 0x518 DUP2 DUP6 DUP6 PUSH2 0xB1F JUMP JUMPDEST PUSH2 0x867 PUSH2 0xBE2 JUMP JUMPDEST PUSH1 0x1 PUSH1 0x1 PUSH1 0xA0 SHL SUB DUP2 AND PUSH2 0x8AF JUMPI PUSH1 0x40 MLOAD PUSH3 0x461BCD PUSH1 0xE5 SHL DUP2 MSTORE PUSH1 0x20 PUSH1 0x4 DUP3 ADD MSTORE PUSH1 0xF PUSH1 0x24 DUP3 ADD MSTORE PUSH15 0x496E76616C69642061646472657373 PUSH1 0x88 SHL PUSH1 0x44 DUP3 ADD MSTORE PUSH1 0x64 ADD PUSH2 0x5C9 JUMP JUMPDEST PUSH1 0x8 DUP1 SLOAD PUSH1 0x1 PUSH1 0x1 PUSH1 0xA0 SHL SUB NOT AND PUSH1 0x1 PUSH1 0x1 PUSH1 0xA0 SHL SUB SWAP3 SWAP1 SWAP3 AND SWAP2 SWAP1 SWAP2 OR SWAP1 SSTORE JUMP JUMPDEST PUSH2 0x8D9 PUSH2 0xBE2 JUMP JUMPDEST PUSH1 0x1 PUSH1 0x1 PUSH1 0xA0 SHL SUB DUP2 AND PUSH2 0x921 JUMPI PUSH1 0x40 MLOAD PUSH3 0x461BCD PUSH1 0xE5 SHL DUP2 MSTORE PUSH1 0x20 PUSH1 0x4 DUP3 ADD MSTORE PUSH1 0xF PUSH1 0x24 DUP3 ADD MSTORE PUSH15 0x496E76616C69642061646472657373 PUSH1 0x88 SHL PUSH1 0x44 DUP3 ADD MSTORE PUSH1 0x64 ADD PUSH2 0x5C9 JUMP JUMPDEST PUSH1 0x9 DUP1 SLOAD PUSH1 0x1 PUSH1 0x1 PUSH1 0xA0 SHL SUB NOT AND PUSH1 0x1 PUSH1 0x1 PUSH1 0xA0 SHL SUB SWAP3 SWAP1 SWAP3 AND SWAP2 SWAP1 SWAP2 OR SWAP1 SSTORE JUMP JUMPDEST PUSH1 0x0 PUSH2 0x94D PUSH2 0xB7E JUMP JUMPDEST PUSH1 0x0 CALLVALUE GT PUSH2 0x992 JUMPI PUSH1 0x40 MLOAD PUSH3 0x461BCD PUSH1 0xE5 SHL DUP2 MSTORE PUSH1 0x20 PUSH1 0x4 DUP3 ADD MSTORE PUSH1 0x12 PUSH1 0x24 DUP3 ADD MSTORE PUSH18 0x4D757374206465706F736974204D41544943 PUSH1 0x70 SHL PUSH1 0x44 DUP3 ADD MSTORE PUSH1 0x64 ADD PUSH2 0x5C9 JUMP JUMPDEST PUSH1 0x2 SLOAD PUSH1 0x0 SUB PUSH2 0x9A3 JUMPI POP CALLVALUE PUSH2 0x9C0 JUMP JUMPDEST PUSH1 0x7 SLOAD PUSH1 0x2 SLOAD PUSH2 0x9B3 SWAP1 CALLVALUE PUSH2 0x102B JUMP JUMPDEST PUSH2 0x9BD SWAP2 SWAP1 PUSH2 0x1042 JUMP JUMPDEST SWAP1 POP JUMPDEST CALLVALUE PUSH1 0x7 PUSH1 0x0 DUP3 DUP3 SLOAD PUSH2 0x9D2 SWAP2 SWAP1 PUSH2 0xEAC JUMP JUMPDEST SWAP1 SWAP2 SSTORE POP PUSH2 0x9E2 SWAP1 POP CALLER DUP3 PUSH2 0xC61 JUMP JUMPDEST PUSH1 0x40 DUP1 MLOAD CALLVALUE DUP2 MSTORE PUSH1 0x20 DUP2 ADD DUP4 SWAP1 MSTORE CALLER SWAP2 PUSH32 0x73A19DD210F1A7F902193214C0EE91DD35EE5B4D920CBA8D519ECA65A7B488CA SWAP2 ADD PUSH1 0x40 MLOAD DUP1 SWAP2 SUB SWAP1 LOG2 PUSH2 0xA27 PUSH1 0x1 PUSH1 0x6 SSTORE JUMP JUMPDEST SWAP1 JUMP JUMPDEST PUSH1 0x0 PUSH2 0xA35 PUSH1 0x2 SLOAD SWAP1 JUMP JUMPDEST PUSH1 0x0 SUB PUSH2 0xA40 JUMPI POP SWAP1 JUMP JUMPDEST PUSH1 0x7 SLOAD PUSH1 0x2 SLOAD PUSH2 0x54E SWAP1 DUP5 PUSH2 0x102B JUMP JUMPDEST PUSH2 0xA58 PUSH2 0xBE2 JUMP JUMPDEST PUSH1 0x1 PUSH1 0x1 PUSH1 0xA0 SHL SUB DUP2 AND PUSH2 0xA82 JUMPI PUSH1 0x40 MLOAD PUSH4 0x1E4FBDF7 PUSH1 0xE0 SHL DUP2 MSTORE PUSH1 0x0 PUSH1 0x4 DUP3 ADD MSTORE PUSH1 0x24 ADD PUSH2 0x5C9 JUMP JUMPDEST PUSH2 0xA8B DUP2 PUSH2 0xC0F JUMP JUMPDEST POP JUMP JUMPDEST PUSH2 0xA9B DUP4 DUP4 DUP4 PUSH1 0x1 PUSH2 0xC97 JUMP JUMPDEST POP POP POP JUMP JUMPDEST PUSH1 0x1 PUSH1 0x1 PUSH1 0xA0 SHL SUB DUP4 DUP2 AND PUSH1 0x0 SWAP1 DUP2 MSTORE PUSH1 0x1 PUSH1 0x20 SWAP1 DUP2 MSTORE PUSH1 0x40 DUP1 DUP4 KECCAK256 SWAP4 DUP7 AND DUP4 MSTORE SWAP3 SWAP1 MSTORE KECCAK256 SLOAD PUSH1 0x0 NOT DUP2 LT ISZERO PUSH2 0xB19 JUMPI DUP2 DUP2 LT ISZERO PUSH2 0xB0A JUMPI PUSH1 0x40 MLOAD PUSH4 0x7DC7A0D9 PUSH1 0xE1 SHL DUP2 MSTORE PUSH1 0x1 PUSH1 0x1 PUSH1 0xA0 SHL SUB DUP5 AND PUSH1 0x4 DUP3 ADD MSTORE PUSH1 0x24 DUP2 ADD DUP3 SWAP1 MSTORE PUSH1 0x44 DUP2 ADD DUP4 SWAP1 MSTORE PUSH1 0x64 ADD PUSH2 0x5C9 JUMP JUMPDEST PUSH2 0xB19 DUP5 DUP5 DUP5 DUP5 SUB PUSH1 0x0 PUSH2 0xC97 JUMP JUMPDEST POP POP POP POP JUMP JUMPDEST PUSH1 0x1 PUSH1 0x1 PUSH1 0xA0 SHL SUB DUP4 AND PUSH2 0xB49 JUMPI PUSH1 0x40 MLOAD PUSH4 0x4B637E8F PUSH1 0xE1 SHL DUP2 MSTORE PUSH1 0x0 PUSH1 0x4 DUP3 ADD MSTORE PUSH1 0x24 ADD PUSH2 0x5C9 JUMP JUMPDEST PUSH1 0x1 PUSH1 0x1 PUSH1 0xA0 SHL SUB DUP3 AND PUSH2 0xB73 JUMPI PUSH1 0x40 MLOAD PUSH4 0xEC442F05 PUSH1 0xE0 SHL DUP2 MSTORE PUSH1 0x0 PUSH1 0x4 DUP3 ADD MSTORE PUSH1 0x24 ADD PUSH2 0x5C9 JUMP JUMPDEST PUSH2 0xA9B DUP4 DUP4 DUP4 PUSH2 0xD6C JUMP JUMPDEST PUSH1 0x2 PUSH1 0x6 SLOAD SUB PUSH2 0xBA1 JUMPI PUSH1 0x40 MLOAD PUSH4 0x3EE5AEB5 PUSH1 0xE0 SHL DUP2 MSTORE PUSH1 0x4 ADD PUSH1 0x40 MLOAD DUP1 SWAP2 SUB SWAP1 REVERT JUMPDEST PUSH1 0x2 PUSH1 0x6 SSTORE JUMP JUMPDEST PUSH1 0x1 PUSH1 0x1 PUSH1 0xA0 SHL SUB DUP3 AND PUSH2 0xBD2 JUMPI PUSH1 0x40 MLOAD PUSH4 0x4B637E8F PUSH1 0xE1 SHL DUP2 MSTORE PUSH1 0x0 PUSH1 0x4 DUP3 ADD MSTORE PUSH1 0x24 ADD PUSH2 0x5C9 JUMP JUMPDEST PUSH2 0xBDE DUP3 PUSH1 0x0 DUP4 PUSH2 0xD6C JUMP JUMPDEST POP POP JUMP JUMPDEST PUSH1 0x5 SLOAD PUSH1 0x1 PUSH1 0x1 PUSH1 0xA0 SHL SUB AND CALLER EQ PUSH2 0x7EB JUMPI PUSH1 0x40 MLOAD PUSH4 0x118CDAA7 PUSH1 0xE0 SHL DUP2 MSTORE CALLER PUSH1 0x4 DUP3 ADD MSTORE PUSH1 0x24 ADD PUSH2 0x5C9 JUMP JUMPDEST PUSH1 0x5 DUP1 SLOAD PUSH1 0x1 PUSH1 0x1 PUSH1 0xA0 SHL SUB DUP4 DUP2 AND PUSH1 0x1 PUSH1 0x1 PUSH1 0xA0 SHL SUB NOT DUP4 AND DUP2 OR SWAP1 SWAP4 SSTORE PUSH1 0x40 MLOAD SWAP2 AND SWAP2 SWAP1 DUP3 SWAP1 PUSH32 0x8BE0079C531659141344CD1FD0A4F28419497F9722A3DAAFE3B4186F6B6457E0 SWAP1 PUSH1 0x0 SWAP1 LOG3 POP POP JUMP JUMPDEST PUSH1 0x1 PUSH1 0x1 PUSH1 0xA0 SHL SUB DUP3 AND PUSH2 0xC8B JUMPI PUSH1 0x40 MLOAD PUSH4 0xEC442F05 PUSH1 0xE0 SHL DUP2 MSTORE PUSH1 0x0 PUSH1 0x4 DUP3 ADD MSTORE PUSH1 0x24 ADD PUSH2 0x5C9 JUMP JUMPDEST PUSH2 0xBDE PUSH1 0x0 DUP4 DUP4 PUSH2 0xD6C JUMP JUMPDEST PUSH1 0x1 PUSH1 0x1 PUSH1 0xA0 SHL SUB DUP5 AND PUSH2 0xCC1 JUMPI PUSH1 0x40 MLOAD PUSH4 0xE602DF05 PUSH1 0xE0 SHL DUP2 MSTORE PUSH1 0x0 PUSH1 0x4 DUP3 ADD MSTORE PUSH1 0x24 ADD PUSH2 0x5C9 JUMP JUMPDEST PUSH1 0x1 PUSH1 0x1 PUSH1 0xA0 SHL SUB DUP4 AND PUSH2 0xCEB JUMPI PUSH1 0x40 MLOAD PUSH4 0x4A1406B1 PUSH1 0xE1 SHL DUP2 MSTORE PUSH1 0x0 PUSH1 0x4 DUP3 ADD MSTORE PUSH1 0x24 ADD PUSH2 0x5C9 JUMP JUMPDEST PUSH1 0x1 PUSH1 0x1 PUSH1 0xA0 SHL SUB DUP1 DUP6 AND PUSH1 0x0 SWAP1 DUP2 MSTORE PUSH1 0x1 PUSH1 0x20 SWAP1 DUP2 MSTORE PUSH1 0x40 DUP1 DUP4 KECCAK256 SWAP4 DUP8 AND DUP4 MSTORE SWAP3 SWAP1 MSTORE KECCAK256 DUP3 SWAP1 SSTORE DUP1 ISZERO PUSH2 0xB19 JUMPI DUP3 PUSH1 0x1 PUSH1 0x1 PUSH1 0xA0 SHL SUB AND DUP5 PUSH1 0x1 PUSH1 0x1 PUSH1 0xA0 SHL SUB AND PUSH32 0x8C5BE1E5EBEC7D5BD14F71427D1E84F3DD0314C0F7B2291E5B200AC8C7C3B925 DUP5 PUSH1 0x40 MLOAD PUSH2 0xD5E SWAP2 DUP2 MSTORE PUSH1 0x20 ADD SWAP1 JUMP JUMPDEST PUSH1 0x40 MLOAD DUP1 SWAP2 SUB SWAP1 LOG3 POP POP POP POP JUMP JUMPDEST PUSH1 0x1 PUSH1 0x1 PUSH1 0xA0 SHL SUB DUP4 AND PUSH2 0xD97 JUMPI DUP1 PUSH1 0x2 PUSH1 0x0 DUP3 DUP3 SLOAD PUSH2 0xD8C SWAP2 SWAP1 PUSH2 0xEAC JUMP JUMPDEST SWAP1 SWAP2 SSTORE POP PUSH2 0xE09 SWAP1 POP JUMP JUMPDEST PUSH1 0x1 PUSH1 0x1 PUSH1 0xA0 SHL SUB DUP4 AND PUSH1 0x0 SWAP1 DUP2 MSTORE PUSH1 0x20 DUP2 SWAP1 MSTORE PUSH1 0x40 SWAP1 KECCAK256 SLOAD DUP2 DUP2 LT ISZERO PUSH2 0xDEA JUMPI PUSH1 0x40 MLOAD PUSH4 0x391434E3 PUSH1 0xE2 SHL DUP2 MSTORE PUSH1 0x1 PUSH1 0x1 PUSH1 0xA0 SHL SUB DUP6 AND PUSH1 0x4 DUP3 ADD MSTORE PUSH1 0x24 DUP2 ADD DUP3 SWAP1 MSTORE PUSH1 0x44 DUP2 ADD DUP4 SWAP1 MSTORE PUSH1 0x64 ADD PUSH2 0x5C9 JUMP JUMPDEST PUSH1 0x1 PUSH1 0x1 PUSH1 0xA0 SHL SUB DUP5 AND PUSH1 0x0 SWAP1 DUP2 MSTORE PUSH1 0x20 DUP2 SWAP1 MSTORE PUSH1 0x40 SWAP1 KECCAK256 SWAP1 DUP3 SWAP1 SUB SWAP1 SSTORE JUMPDEST PUSH1 0x1 PUSH1 0x1 PUSH1 0xA0 SHL SUB DUP3 AND PUSH2 0xE25 JUMPI PUSH1 0x2 DUP1 SLOAD DUP3 SWAP1 SUB SWAP1 SSTORE PUSH2 0xE44 JUMP JUMPDEST PUSH1 0x1 PUSH1 0x1 PUSH1 0xA0 SHL SUB DUP3 AND PUSH1 0x0 SWAP1 DUP2 MSTORE PUSH1 0x20 DUP2 SWAP1 MSTORE PUSH1 0x40 SWAP1 KECCAK256 DUP1 SLOAD DUP3 ADD SWAP1 SSTORE JUMPDEST DUP2 PUSH1 0x1 PUSH1 0x1 PUSH1 0xA0 SHL SUB AND DUP4 PUSH1 0x1 PUSH1 0x1 PUSH1 0xA0 SHL SUB AND PUSH32 0xDDF252AD1BE2C89B69C2B068FC378DAA952BA7F163C4A11628F55A4DF523B3EF DUP4 PUSH1 0x40 MLOAD PUSH2 0xE89 SWAP2 DUP2 MSTORE PUSH1 0x20 ADD SWAP1 JUMP JUMPDEST PUSH1 0x40 MLOAD DUP1 SWAP2 SUB SWAP1 LOG3 POP POP POP JUMP JUMPDEST PUSH4 0x4E487B71 PUSH1 0xE0 SHL PUSH1 0x0 MSTORE PUSH1 0x11 PUSH1 0x4 MSTORE PUSH1 0x24 PUSH1 0x0 REVERT JUMPDEST DUP1 DUP3 ADD DUP1 DUP3 GT ISZERO PUSH2 0x51E JUMPI PUSH2 0x51E PUSH2 0xE96 JUMP JUMPDEST PUSH1 0x0 PUSH1 0x20 DUP1 DUP4 MSTORE DUP4 MLOAD DUP1 DUP3 DUP6 ADD MSTORE PUSH1 0x0 JUMPDEST DUP2 DUP2 LT ISZERO PUSH2 0xEEC JUMPI DUP6 DUP2 ADD DUP4 ADD MLOAD DUP6 DUP3 ADD PUSH1 0x40 ADD MSTORE DUP3 ADD PUSH2 0xED0 JUMP JUMPDEST POP PUSH1 0x0 PUSH1 0x40 DUP3 DUP7 ADD ADD MSTORE PUSH1 0x40 PUSH1 0x1F NOT PUSH1 0x1F DUP4 ADD AND DUP6 ADD ADD SWAP3 POP POP POP SWAP3 SWAP2 POP POP JUMP JUMPDEST DUP1 CALLDATALOAD PUSH1 0x1 PUSH1 0x1 PUSH1 0xA0 SHL SUB DUP2 AND DUP2 EQ PUSH2 0x7D4 JUMPI PUSH1 0x0 DUP1 REVERT JUMPDEST PUSH1 0x0 DUP1 PUSH1 0x40 DUP4 DUP6 SUB SLT ISZERO PUSH2 0xF37 JUMPI PUSH1 0x0 DUP1 REVERT JUMPDEST PUSH2 0xF40 DUP4 PUSH2 0xF0D JUMP JUMPDEST SWAP5 PUSH1 0x20 SWAP4 SWAP1 SWAP4 ADD CALLDATALOAD SWAP4 POP POP POP JUMP JUMPDEST PUSH1 0x0 PUSH1 0x20 DUP3 DUP5 SUB SLT ISZERO PUSH2 0xF60 JUMPI PUSH1 0x0 DUP1 REVERT JUMPDEST POP CALLDATALOAD SWAP2 SWAP1 POP JUMP JUMPDEST PUSH1 0x0 DUP1 PUSH1 0x0 PUSH1 0x60 DUP5 DUP7 SUB SLT ISZERO PUSH2 0xF7C JUMPI PUSH1 0x0 DUP1 REVERT JUMPDEST PUSH2 0xF85 DUP5 PUSH2 0xF0D JUMP JUMPDEST SWAP3 POP PUSH2 0xF93 PUSH1 0x20 DUP6 ADD PUSH2 0xF0D JUMP JUMPDEST SWAP2 POP PUSH1 0x40 DUP5 ADD CALLDATALOAD SWAP1 POP SWAP3 POP SWAP3 POP SWAP3 JUMP JUMPDEST PUSH1 0x0 PUSH1 0x20 DUP3 DUP5 SUB SLT ISZERO PUSH2 0xFB5 JUMPI PUSH1 0x0 DUP1 REVERT JUMPDEST PUSH2 0x83B DUP3 PUSH2 0xF0D JUMP JUMPDEST PUSH1 0x0 DUP1 PUSH1 0x40 DUP4 DUP6 SUB SLT ISZERO PUSH2 0xFD1 JUMPI PUSH1 0x0 DUP1 REVERT JUMPDEST PUSH2 0xFDA DUP4 PUSH2 0xF0D JUMP JUMPDEST SWAP2 POP PUSH2 0xFE8 PUSH1 0x20 DUP5 ADD PUSH2 0xF0D JUMP JUMPDEST SWAP1 POP SWAP3 POP SWAP3 SWAP1 POP JUMP JUMPDEST PUSH1 0x1 DUP2 DUP2 SHR SWAP1 DUP3 AND DUP1 PUSH2 0x1005 JUMPI PUSH1 0x7F DUP3 AND SWAP2 POP JUMPDEST PUSH1 0x20 DUP3 LT DUP2 SUB PUSH2 0x1025 JUMPI PUSH4 0x4E487B71 PUSH1 0xE0 SHL PUSH1 0x0 MSTORE PUSH1 0x22 PUSH1 0x4 MSTORE PUSH1 0x24 PUSH1 0x0 REVERT JUMPDEST POP SWAP2 SWAP1 POP JUMP JUMPDEST DUP1 DUP3 MUL DUP2 ISZERO DUP3 DUP3 DIV DUP5 EQ OR PUSH2 0x51E JUMPI PUSH2 0x51E PUSH2 0xE96 JUMP JUMPDEST PUSH1 0x0 DUP3 PUSH2 0x105F JUMPI PUSH4 0x4E487B71 PUSH1 0xE0 SHL PUSH1 0x0 MSTORE PUSH1 0x12 PUSH1 0x4 MSTORE PUSH1 0x24 PUSH1 0x0 REVERT JUMPDEST POP DIV SWAP1 JUMP JUMPDEST DUP2 DUP2 SUB DUP2 DUP2 GT ISZERO PUSH2 0x51E JUMPI PUSH2 0x51E PUSH2 0xE96 JUMP INVALID LOG2 PUSH5 0x6970667358 0x22 SLT KECCAK256 CALLDATASIZE LT 0x4A PUSH18 0x432E3CCBBF639726F55AA9BCBDEA5A191C7B SWAP1 0xEC EQ 0xBA PUSH15 0xAC469FEBF864736F6C634300081400 CALLER "},"methodIdentifiers":{"aaveAdapter()":"571eb114","allowance(address,address)":"dd62ed3e","approve(address,uint256)":"095ea7b3","balanceOf(address)":"70a08231","balanceOfAssets(address)":"9159b206","decimals()":"313ce567","deposit()":"d0e30db0","name()":"06fdde03","owner()":"8da5cb5b","previewDeposit(uint256)":"ef8b30f7","previewWithdraw(uint256)":"0a28a477","rebalanceExecutor()":"d77ab72d","renounceOwnership()":"715018a6","setAaveAdapter(address)":"bdf20706","setRebalanceExecutor(address)":"ce6e13ff","symbol()":"95d89b41","totalAssets()":"01e1d114","totalSupply()":"18160ddd","totalValueLocked()":"ec18154e","transfer(address,uint256)":"a9059cbb","transferFrom(address,address,uint256)":"23b872dd","transferOwnership(address)":"f2fde38b","withdraw(uint256)":"2e1a7d4d"}}}}}