{
  "_format": "hh-sol-artifact-1",
  "contractName": "MATICVault",
  "sourceName": "contracts/MATICVault.sol",
  "abi": [
    {
      "inputs": [
        {
          "internalType": "string",
          "name": "_name",
          "type": "string"
        },
        {
          "internalType": "string",
          "name": "_symbol",
          "type": "string"
        }
      ],
      "stateMutability": "nonpayable",
      "type": "constructor"
    },
    {
      "inputs": [
        {
          "internalType": "address",
          "name": "spender",
          "type": "address"
        },
        {
          "internalType": "uint256",
          "name": "allowance",
          "type": "uint256"
        },
        {
          "internalType": "uint256",
          "name": "needed",
          "type": "uint256"
        }
      ],
      "name": "ERC20InsufficientAllowance",
      "type": "error"
    },
    {
      "inputs": [
        {
          "internalType": "address",
          "name": "sender",
          "type": "address"
        },
        {
          "internalType": "uint256",
          "name": "balance",
          "type": "uint256"
        },
        {
          "internalType": "uint256",
          "name": "needed",
          "type": "uint256"
        }
      ],
      "name": "ERC20InsufficientBalance",
      "type": "error"
    },
    {
      "inputs": [
        {
          "internalType": "address",
          "name": "approver",
          "type": "address"
        }
      ],
      "name": "ERC20InvalidApprover",
      "type": "error"
    },
    {
      "inputs": [
        {
          "internalType": "address",
          "name": "receiver",
          "type": "address"
        }
      ],
      "name": "ERC20InvalidReceiver",
      "type": "error"
    },
    {
      "inputs": [
        {
          "internalType": "address",
          "name": "sender",
          "type": "address"
        }
      ],
      "name": "ERC20InvalidSender",
      "type": "error"
    },
    {
      "inputs": [
        {
          "internalType": "address",
          "name": "spender",
          "type": "address"
        }
      ],
      "name": "ERC20InvalidSpender",
      "type": "error"
    },
    {
      "inputs": [
        {
          "internalType": "address",
          "name": "owner",
          "type": "address"
        }
      ],
      "name": "OwnableInvalidOwner",
      "type": "error"
    },
    {
      "inputs": [
        {
          "internalType": "address",
          "name": "account",
          "type": "address"
        }
      ],
      "name": "OwnableUnauthorizedAccount",
      "type": "error"
    },
    {
      "inputs": [],
      "name": "ReentrancyGuardReentrantCall",
      "type": "error"
    },
    {
      "anonymous": false,
      "inputs": [
        {
          "indexed": true,
          "internalType": "address",
          "name": "owner",
          "type": "address"
        },
        {
          "indexed": true,
          "internalType": "address",
          "name": "spender",
          "type": "address"
        },
        {
          "indexed": false,
          "internalType": "uint256",
          "name": "value",
          "type": "uint256"
        }
      ],
      "name": "Approval",
      "type": "event"
    },
    {
      "anonymous": false,
      "inputs": [
        {
          "indexed": true,
          "internalType": "address",
          "name": "user",
          "type": "address"
        },
        {
          "indexed": false,
          "internalType": "uint256",
          "name": "amount",
          "type": "uint256"
        },
        {
          "indexed": false,
          "internalType": "uint256",
          "name": "shares",
          "type": "uint256"
        }
      ],
      "name": "Deposited",
      "type": "event"
    },
    {
      "anonymous": false,
      "inputs": [
        {
          "indexed": true,
          "internalType": "address",
          "name": "previousOwner",
          "type": "address"
        },
        {
          "indexed": true,
          "internalType": "address",
          "name": "newOwner",
          "type": "address"
        }
      ],
      "name": "OwnershipTransferred",
      "type": "event"
    },
    {
      "anonymous": false,
      "inputs": [
        {
          "indexed": true,
          "internalType": "address",
          "name": "strategy",
          "type": "address"
        },
        {
          "indexed": false,
          "internalType": "uint256",
          "name": "amount",
          "type": "uint256"
        },
        {
          "indexed": false,
          "internalType": "uint256",
          "name": "timestamp",
          "type": "uint256"
        }
      ],
      "name": "Rebalanced",
      "type": "event"
    },
    {
      "anonymous": false,
      "inputs": [
        {
          "indexed": true,
          "internalType": "address",
          "name": "from",
          "type": "address"
        },
        {
          "indexed": true,
          "internalType": "address",
          "name": "to",
          "type": "address"
        },
        {
          "indexed": false,
          "internalType": "uint256",
          "name": "value",
          "type": "uint256"
        }
      ],
      "name": "Transfer",
      "type": "event"
    },
    {
      "anonymous": false,
      "inputs": [
        {
          "indexed": true,
          "internalType": "address",
          "name": "user",
          "type": "address"
        },
        {
          "indexed": false,
          "internalType": "uint256",
          "name": "amount",
          "type": "uint256"
        },
        {
          "indexed": false,
          "internalType": "uint256",
          "name": "shares",
          "type": "uint256"
        }
      ],
      "name": "Withdrawn",
      "type": "event"
    },
    {
      "stateMutability": "payable",
      "type": "fallback"
    },
    {
      "inputs": [],
      "name": "aaveAdapter",
      "outputs": [
        {
          "internalType": "address",
          "name": "",
          "type": "address"
        }
      ],
      "stateMutability": "view",
      "type": "function"
    },
    {
      "inputs": [
        {
          "internalType": "address",
          "name": "owner",
          "type": "address"
        },
        {
          "internalType": "address",
          "name": "spender",
          "type": "address"
        }
      ],
      "name": "allowance",
      "outputs": [
        {
          "internalType": "uint256",
          "name": "",
          "type": "uint256"
        }
      ],
      "stateMutability": "view",
      "type": "function"
    },
    {
      "inputs": [
        {
          "internalType": "address",
          "name": "spender",
          "type": "address"
        },
        {
          "internalType": "uint256",
          "name": "value",
          "type": "uint256"
        }
      ],
      "name": "approve",
      "outputs": [
        {
          "internalType": "bool",
          "name": "",
          "type": "bool"
        }
      ],
      "stateMutability": "nonpayable",
      "type": "function"
    },
    {
      "inputs": [
        {
          "internalType": "address",
          "name": "account",
          "type": "address"
        }
      ],
      "name": "balanceOf",
      "outputs": [
        {
          "internalType": "uint256",
          "name": "",
          "type": "uint256"
        }
      ],
      "stateMutability": "view",
      "type": "function"
    },
    {
      "inputs": [
        {
          "internalType": "address",
          "name": "user",
          "type": "address"
        }
      ],
      "name": "balanceOfAssets",
      "outputs": [
        {
          "internalType": "uint256",
          "name": "",
          "type": "uint256"
        }
      ],
      "stateMutability": "view",
      "type": "function"
    },
    {
      "inputs": [],
      "name": "decimals",
      "outputs": [
        {
          "internalType": "uint8",
          "name": "",
          "type": "uint8"
        }
      ],
      "stateMutability": "view",
      "type": "function"
    },
    {
      "inputs": [],
      "name": "deposit",
      "outputs": [
        {
          "internalType": "uint256",
          "name": "shares",
          "type": "uint256"
        }
      ],
      "stateMutability": "payable",
      "type": "function"
    },
    {
      "inputs": [],
      "name": "name",
      "outputs": [
        {
          "internalType": "string",
          "name": "",
          "type": "string"
        }
      ],
      "stateMutability": "view",
      "type": "function"
    },
    {
      "inputs": [],
      "name": "owner",
      "outputs": [
        {
          "internalType": "address",
          "name": "",
          "type": "address"
        }
      ],
      "stateMutability": "view",
      "type": "function"
    },
    {
      "inputs": [
        {
          "internalType": "uint256",
          "name": "amount",
          "type": "uint256"
        }
      ],
      "name": "previewDeposit",
      "outputs": [
        {
          "internalType": "uint256",
          "name": "shares",
          "type": "uint256"
        }
      ],
      "stateMutability": "view",
      "type": "function"
    },
    {
      "inputs": [
        {
          "internalType": "uint256",
          "name": "shares",
          "type": "uint256"
        }
      ],
      "name": "previewWithdraw",
      "outputs": [
        {
          "internalType": "uint256",
          "name": "amount",
          "type": "uint256"
        }
      ],
      "stateMutability": "view",
      "type": "function"
    },
    {
      "inputs": [],
      "name": "rebalanceExecutor",
      "outputs": [
        {
          "internalType": "address",
          "name": "",
          "type": "address"
        }
      ],
      "stateMutability": "view",
      "type": "function"
    },
    {
      "inputs": [],
      "name": "renounceOwnership",
      "outputs": [],
      "stateMutability": "nonpayable",
      "type": "function"
    },
    {
      "inputs": [
        {
          "internalType": "address",
          "name": "_aaveAdapter",
          "type": "address"
        }
      ],
      "name": "setAaveAdapter",
      "outputs": [],
      "stateMutability": "nonpayable",
      "type": "function"
    },
    {
      "inputs": [
        {
          "internalType": "address",
          "name": "_rebalanceExecutor",
          "type": "address"
        }
      ],
      "name": "setRebalanceExecutor",
      "outputs": [],
      "stateMutability": "nonpayable",
      "type": "function"
    },
    {
      "inputs": [],
      "name": "symbol",
      "outputs": [
        {
          "internalType": "string",
          "name": "",
          "type": "string"
        }
      ],
      "stateMutability": "view",
      "type": "function"
    },
    {
      "inputs": [],
      "name": "totalAssets",
      "outputs": [
        {
          "internalType": "uint256",
          "name": "",
          "type": "uint256"
        }
      ],
      "stateMutability": "view",
      "type": "function"
    },
    {
      "inputs": [],
      "name": "totalSupply",
      "outputs": [
        {
          "internalType": "uint256",
          "name": "",
          "type": "uint256"
        }
      ],
      "stateMutability": "view",
      "type": "function"
    },
    {
      "inputs": [],
      "name": "totalValueLocked",
      "outputs": [
        {
          "internalType": "uint256",
          "name": "",
          "type": "uint256"
        }
      ],
      "stateMutability": "view",
      "type": "function"
    },
    {
      "inputs": [
        {
          "internalType": "address",
          "name": "to",
          "type": "address"
        },
        {
          "internalType": "uint256",
          "name": "value",
          "type": "uint256"
        }
      ],
      "name": "transfer",
      "outputs": [
        {
          "internalType": "bool",
          "name": "",
          "type": "bool"
        }
      ],
      "stateMutability": "nonpayable",
      "type": "function"
    },
    {
      "inputs": [
        {
          "internalType": "address",
          "name": "from",
          "type": "address"
        },
        {
          "internalType": "address",
          "name": "to",
          "type": "address"
        },
        {
          "internalType": "uint256",
          "name": "value",
          "type": "uint256"
        }
      ],
      "name": "transferFrom",
      "outputs": [
        {
          "internalType": "bool",
          "name": "",
          "type": "bool"
        }
      ],
      "stateMutability": "nonpayable",
      "type": "function"
    },
    {
      "inputs": [
        {
          "internalType": "address",
          "name": "newOwner",
          "type": "address"
        }
      ],
      "name": "transferOwnership",
      "outputs": [],
      "stateMutability": "nonpayable",
      "type": "function"
    },
    {
      "inputs": [
        {
          "internalType": "uint256",
          "name": "shares",
          "type": "uint256"
        }
      ],
      "name": "withdraw",
      "outputs": [
        {
          "internalType": "uint256",
          "name": "amount",
          "type": "uint256"
        }
      ],
      "stateMutability": "nonpayable",
      "type": "function"
    },
    {
      "stateMutability": "payable",
      "type": "receive"
    }
  ],
  "bytecode": "0x60806040523480156200001157600080fd5b5060405162001438380380620014388339810160408190526200003491620001b6565b3382826003620000458382620002af565b506004620000548282620002af565b5050506001600160a01b0381166200008657604051631e4fbdf760e01b81526000600482015260240160405180910390fd5b62000091816200009f565b50506001600655506200037b565b600580546001600160a01b038381166001600160a01b0319831681179093556040519116919082907f8be0079c531659141344cd1fd0a4f28419497f9722a3daafe3b4186f6b6457e090600090a35050565b634e487b7160e01b600052604160045260246000fd5b600082601f8301126200011957600080fd5b81516001600160401b0380821115620001365762000136620000f1565b604051601f8301601f19908116603f01168101908282118183101715620001615762000161620000f1565b816040528381526020925086838588010111156200017e57600080fd5b600091505b83821015620001a2578582018301518183018401529082019062000183565b600093810190920192909252949350505050565b60008060408385031215620001ca57600080fd5b82516001600160401b0380821115620001e257600080fd5b620001f08683870162000107565b935060208501519150808211156200020757600080fd5b50620002168582860162000107565b9150509250929050565b600181811c908216806200023557607f821691505b6020821081036200025657634e487b7160e01b600052602260045260246000fd5b50919050565b601f821115620002aa57600081815260208120601f850160051c81016020861015620002855750805b601f850160051c820191505b81811015620002a65782815560010162000291565b5050505b505050565b81516001600160401b03811115620002cb57620002cb620000f1565b620002e381620002dc845462000220565b846200025c565b602080601f8311600181146200031b5760008415620003025750858301515b600019600386901b1c1916600185901b178555620002a6565b600085815260208120601f198616915b828110156200034c578886015182559484019460019091019084016200032b565b50858210156200036b5787850151600019600388901b60f8161c191681555b5050505050600190811b01905550565b6110ad806200038b6000396000f3fe6080604052600436106101445760003560e01c80638da5cb5b116100b6578063d0e30db01161006f578063d0e30db0146103b4578063d77ab72d146103bc578063dd62ed3e146103dc578063ec18154e14610422578063ef8b30f714610438578063f2fde38b1461045857610163565b80638da5cb5b146103015780639159b2061461031f57806395d89b411461033f578063a9059cbb14610354578063bdf2070614610374578063ce6e13ff1461039457610163565b806323b872dd1161010857806323b872dd146102205780632e1a7d4d14610240578063313ce56714610260578063571eb1141461027c57806370a08231146102b4578063715018a6146102ea57610163565b806301e1d1141461017557806306fdde0314610199578063095ea7b3146101bb5780630a28a477146101eb57806318160ddd1461020b57610163565b3661016357346007600082825461015b9190610eac565b925050819055005b346007600082825461015b9190610eac565b34801561018157600080fd5b506007545b6040519081526020015b60405180910390f35b3480156101a557600080fd5b506101ae610478565b6040516101909190610ebf565b3480156101c757600080fd5b506101db6101d6366004610f24565b61050a565b6040519015158152602001610190565b3480156101f757600080fd5b50610186610206366004610f4e565b610524565b34801561021757600080fd5b50600254610186565b34801561022c57600080fd5b506101db61023b366004610f67565b610558565b34801561024c57600080fd5b5061018661025b366004610f4e565b61057c565b34801561026c57600080fd5b5060405160128152602001610190565b34801561028857600080fd5b5060085461029c906001600160a01b031681565b6040516001600160a01b039091168152602001610190565b3480156102c057600080fd5b506101866102cf366004610fa3565b6001600160a01b031660009081526020819052604090205490565b3480156102f657600080fd5b506102ff6107d9565b005b34801561030d57600080fd5b506005546001600160a01b031661029c565b34801561032b57600080fd5b5061018661033a366004610fa3565b6107ed565b34801561034b57600080fd5b506101ae610842565b34801561036057600080fd5b506101db61036f366004610f24565b610851565b34801561038057600080fd5b506102ff61038f366004610fa3565b61085f565b3480156103a057600080fd5b506102ff6103af366004610fa3565b6108d1565b610186610943565b3480156103c857600080fd5b5060095461029c906001600160a01b031681565b3480156103e857600080fd5b506101866103f7366004610fbe565b6001600160a01b03918216600090815260016020908152604080832093909416825291909152205490565b34801561042e57600080fd5b5061018660075481565b34801561044457600080fd5b50610186610453366004610f4e565b610a2a565b34801561046457600080fd5b506102ff610473366004610fa3565b610a50565b60606003805461048790610ff1565b80601f01602080910402602001604051908101604052809291908181526020018280546104b390610ff1565b80156105005780601f106104d557610100808354040283529160200191610500565b820191906000526020600020905b8154815290600101906020018083116104e357829003601f168201915b5050505050905090565b600033610518818585610a8e565b60019150505b92915050565b600061052f60025490565b60000361053e57506000919050565b60025460075461054e908461102b565b61051e9190611042565b600033610566858285610aa0565b610571858585610b1f565b506001949350505050565b6000610586610b7e565b600082116105d25760405162461bcd60e51b81526020600482015260146024820152734d7573742077697468647261772073686172657360601b60448201526064015b60405180910390fd5b336000908152602081905260409020548211156106275760405162461bcd60e51b8152602060048201526013602482015272496e73756666696369656e742073686172657360681b60448201526064016105c9565b600254600754610637908461102b565b6106419190611042565b90506000811161068c5760405162461bcd60e51b815260206004820152601660248201527516995c9bc81dda5d1a191c985dd85b08185b5bdd5b9d60521b60448201526064016105c9565b804710156106dc5760405162461bcd60e51b815260206004820152601a60248201527f496e73756666696369656e74207661756c742062616c616e636500000000000060448201526064016105c9565b80600760008282546106ee9190611064565b909155506106fe90503383610ba8565b604051600090339083908381818185875af1925050503d8060008114610740576040519150601f19603f3d011682016040523d82523d6000602084013e610745565b606091505b505090508061078e5760405162461bcd60e51b81526020600482015260156024820152741350551250c81d1c985b9cd9995c8819985a5b1959605a1b60448201526064016105c9565b604080518381526020810185905233917f92ccf450a286a957af52509bc1c9939d1a6a481783e142e41e2499f0bb66ebc6910160405180910390a2506107d46001600655565b919050565b6107e1610be2565b6107eb6000610c0f565b565b6001600160a01b0381166000908152602081905260408120548015806108135750600254155b156108215750600092915050565b600254600754610831908361102b565b61083b9190611042565b9392505050565b60606004805461048790610ff1565b600033610518818585610b1f565b610867610be2565b6001600160a01b0381166108af5760405162461bcd60e51b815260206004820152600f60248201526e496e76616c6964206164647265737360881b60448201526064016105c9565b600880546001600160a01b0319166001600160a01b0392909216919091179055565b6108d9610be2565b6001600160a01b0381166109215760405162461bcd60e51b815260206004820152600f60248201526e496e76616c6964206164647265737360881b60448201526064016105c9565b600980546001600160a01b0319166001600160a01b0392909216919091179055565b600061094d610b7e565b600034116109925760405162461bcd60e51b81526020600482015260126024820152714d757374206465706f736974204d4154494360701b60448201526064016105c9565b6002546000036109a35750346109c0565b6007546002546109b3903461102b565b6109bd9190611042565b90505b34600760008282546109d29190610eac565b909155506109e290503382610c61565b604080513481526020810183905233917f73a19dd210f1a7f902193214c0ee91dd35ee5b4d920cba8d519eca65a7b488ca910160405180910390a2610a276001600655565b90565b6000610a3560025490565b600003610a40575090565b60075460025461054e908461102b565b610a58610be2565b6001600160a01b038116610a8257604051631e4fbdf760e01b8152600060048201526024016105c9565b610a8b81610c0f565b50565b610a9b8383836001610c97565b505050565b6001600160a01b03838116600090815260016020908152604080832093861683529290522054600019811015610b195781811015610b0a57604051637dc7a0d960e11b81526001600160a01b038416600482015260248101829052604481018390526064016105c9565b610b1984848484036000610c97565b50505050565b6001600160a01b038316610b4957604051634b637e8f60e11b8152600060048201526024016105c9565b6001600160a01b038216610b735760405163ec442f0560e01b8152600060048201526024016105c9565b610a9b838383610d6c565b600260065403610ba157604051633ee5aeb560e01b815260040160405180910390fd5b6002600655565b6001600160a01b038216610bd257604051634b637e8f60e11b8152600060048201526024016105c9565b610bde82600083610d6c565b5050565b6005546001600160a01b031633146107eb5760405163118cdaa760e01b81523360048201526024016105c9565b600580546001600160a01b038381166001600160a01b0319831681179093556040519116919082907f8be0079c531659141344cd1fd0a4f28419497f9722a3daafe3b4186f6b6457e090600090a35050565b6001600160a01b038216610c8b5760405163ec442f0560e01b8152600060048201526024016105c9565b610bde60008383610d6c565b6001600160a01b038416610cc15760405163e602df0560e01b8152600060048201526024016105c9565b6001600160a01b038316610ceb57604051634a1406b160e11b8152600060048201526024016105c9565b6001600160a01b0380851660009081526001602090815260408083209387168352929052208290558015610b1957826001600160a01b0316846001600160a01b03167f8c5be1e5ebec7d5bd14f71427d1e84f3dd0314c0f7b2291e5b200ac8c7c3b92584604051610d5e91815260200190565b60405180910390a350505050565b6001600160a01b038316610d97578060026000828254610d8c9190610eac565b90915550610e099050565b6001600160a01b03831660009081526020819052604090205481811015610dea5760405163391434e360e21b81526001600160a01b038516600482015260248101829052604481018390526064016105c9565b6001600160a01b03841660009081526020819052604090209082900390555b6001600160a01b038216610e2557600280548290039055610e44565b6001600160a01b03821660009081526020819052604090208054820190555b816001600160a01b0316836001600160a01b03167fddf252ad1be2c89b69c2b068fc378daa952ba7f163c4a11628f55a4df523b3ef83604051610e8991815260200190565b60405180910390a3505050565b634e487b7160e01b600052601160045260246000fd5b8082018082111561051e5761051e610e96565b600060208083528351808285015260005b81811015610eec57858101830151858201604001528201610ed0565b506000604082860101526040601f19601f8301168501019250505092915050565b80356001600160a01b03811681146107d457600080fd5b60008060408385031215610f3757600080fd5b610f4083610f0d565b946020939093013593505050565b600060208284031215610f6057600080fd5b5035919050565b600080600060608486031215610f7c57600080fd5b610f8584610f0d565b9250610f9360208501610f0d565b9150604084013590509250925092565b600060208284031215610fb557600080fd5b61083b82610f0d565b60008060408385031215610fd157600080fd5b610fda83610f0d565b9150610fe860208401610f0d565b90509250929050565b600181811c9082168061100557607f821691505b60208210810361102557634e487b7160e01b600052602260045260246000fd5b50919050565b808202811582820484141761051e5761051e610e96565b60008261105f57634e487b7160e01b600052601260045260246000fd5b500490565b8181038181111561051e5761051e610e9656fea264697066735822122036104a71432e3ccbbf639726f55aa9bcbdea5a191c7b90ec14ba6eac469febf864736f6c63430008140033",
  "linkReferences": {},
  "deployedLinkReferences": {}
}