{
  "_format": "hh-sol-artifact-1",
  "contractName": "AaveV3Adapter",
  "sourceName": "contracts/AaveV3Adapter.sol",
  "abi": [
    {
      "inputs": [
        {
          "internalType": "address",
          "name": "_asset",
          "type": "address"
        },
        {
          "internalType": "address",
          "name": "_aToken",
          "type": "address"
        }
      ],
      "stateMutability": "nonpayable",
      "type": "constructor"
    },
    {
      "inputs": [
        {
          "internalType": "address",
          "name": "owner",
          "type": "address"
        }
      ],
      "name": "OwnableInvalidOwner",
      "type": "error"
    },
    {
      "inputs": [
        {
          "internalType": "address",
          "name": "account",
          "type": "address"
        }
      ],
      "name": "OwnableUnauthorizedAccount",
      "type": "error"
    },
    {
      "inputs": [
        {
          "internalType": "address",
          "name": "token",
          "type": "address"
        }
      ],
      "name": "SafeERC20FailedOperation",
      "type": "error"
    },
    {
      "anonymous": false,
      "inputs": [
        {
          "indexed": true,
          "internalType": "address",
          "name": "user",
          "type": "address"
        },
        {
          "indexed": false,
          "internalType": "uint256",
          "name": "amount",
          "type": "uint256"
        }
      ],
      "name": "Deposited",
      "type": "event"
    },
    {
      "anonymous": false,
      "inputs": [
        {
          "indexed": true,
          "internalType": "address",
          "name": "previousOwner",
          "type": "address"
        },
        {
          "indexed": true,
          "internalType": "address",
          "name": "newOwner",
          "type": "address"
        }
      ],
      "name": "OwnershipTransferred",
      "type": "event"
    },
    {
      "anonymous": false,
      "inputs": [
        {
          "indexed": true,
          "internalType": "address",
          "name": "user",
          "type": "address"
        },
        {
          "indexed": false,
          "internalType": "uint256",
          "name": "amount",
          "type": "uint256"
        }
      ],
      "name": "Withdrawn",
      "type": "event"
    },
    {
      "inputs": [],
      "name": "AAVE_POOL",
      "outputs": [
        {
          "internalType": "contract IPool",
          "name": "",
          "type": "address"
        }
      ],
      "stateMutability": "view",
      "type": "function"
    },
    {
      "inputs": [],
      "name": "aToken",
      "outputs": [
        {
          "internalType": "contract IAToken",
          "name": "",
          "type": "address"
        }
      ],
      "stateMutability": "view",
      "type": "function"
    },
    {
      "inputs": [],
      "name": "asset",
      "outputs": [
        {
          "internalType": "contract IERC20",
          "name": "",
          "type": "address"
        }
      ],
      "stateMutability": "view",
      "type": "function"
    },
    {
      "inputs": [
        {
          "internalType": "address",
          "name": "user",
          "type": "address"
        }
      ],
      "name": "balanceOf",
      "outputs": [
        {
          "internalType": "uint256",
          "name": "",
          "type": "uint256"
        }
      ],
      "stateMutability": "view",
      "type": "function"
    },
    {
      "inputs": [
        {
          "internalType": "uint256",
          "name": "amount",
          "type": "uint256"
        }
      ],
      "name": "deposit",
      "outputs": [],
      "stateMutability": "nonpayable",
      "type": "function"
    },
    {
      "inputs": [],
      "name": "getCurrentAPY",
      "outputs": [
        {
          "internalType": "uint256",
          "name": "",
          "type": "uint256"
        }
      ],
      "stateMutability": "pure",
      "type": "function"
    },
    {
      "inputs": [],
      "name": "owner",
      "outputs": [
        {
          "internalType": "address",
          "name": "",
          "type": "address"
        }
      ],
      "stateMutability": "view",
      "type": "function"
    },
    {
      "inputs": [],
      "name": "renounceOwnership",
      "outputs": [],
      "stateMutability": "nonpayable",
      "type": "function"
    },
    {
      "inputs": [
        {
          "internalType": "address",
          "name": "_vault",
          "type": "address"
        }
      ],
      "name": "setVault",
      "outputs": [],
      "stateMutability": "nonpayable",
      "type": "function"
    },
    {
      "inputs": [
        {
          "internalType": "address",
          "name": "newOwner",
          "type": "address"
        }
      ],
      "name": "transferOwnership",
      "outputs": [],
      "stateMutability": "nonpayable",
      "type": "function"
    },
    {
      "inputs": [],
      "name": "vault",
      "outputs": [
        {
          "internalType": "address",
          "name": "",
          "type": "address"
        }
      ],
      "stateMutability": "view",
      "type": "function"
    },
    {
      "inputs": [
        {
          "internalType": "uint256",
          "name": "amount",
          "type": "uint256"
        }
      ],
      "name": "withdraw",
      "outputs": [],
      "stateMutability": "nonpayable",
      "type": "function"
    }
  ],
  "bytecode": "0x60c060405234801561001057600080fd5b506040516109dc3803806109dc83398101604081905261002f916100f4565b338061005557604051631e4fbdf760e01b81526000600482015260240160405180910390fd5b61005e81610088565b506001600160a01b0391821660a05216608052600180546001600160a01b03191633179055610127565b600080546001600160a01b038381166001600160a01b0319831681178455604051919092169283917f8be0079c531659141344cd1fd0a4f28419497f9722a3daafe3b4186f6b6457e09190a35050565b80516001600160a01b03811681146100ef57600080fd5b919050565b6000806040838503121561010757600080fd5b610110836100d8565b915061011e602084016100d8565b90509250929050565b60805160a05161086d61016f6000396000818161010b0152818161024501528181610480015281816104d80152610565015260008181610187015261035a015261086d6000f3fe608060405234801561001057600080fd5b50600436106100b45760003560e01c80638da5cb5b116100715780638da5cb5b14610169578063962ca4961461017a578063a0c1f15e14610182578063b6b55f25146101a9578063f2fde38b146101bc578063fbfa77cf146101cf57600080fd5b806308a01675146100b95780632e1a7d4d146100f157806338d52e0f146101065780636817031b1461012d57806370a0823114610140578063715018a614610161575b600080fd5b6100d473794a61358d6845594f94dc1db02a252b5b4814ad81565b6040516001600160a01b0390911681526020015b60405180910390f35b6101046100ff3660046107b3565b6101e2565b005b6100d47f000000000000000000000000000000000000000000000000000000000000000081565b61010461013b3660046107cc565b610318565b61015361014e3660046107cc565b610342565b6040519081526020016100e8565b6101046103d3565b6000546001600160a01b03166100d4565b61015e610153565b6100d47f000000000000000000000000000000000000000000000000000000000000000081565b6101046101b73660046107b3565b6103e7565b6101046101ca3660046107cc565b610627565b6001546100d4906001600160a01b031681565b6001546001600160a01b0316331461022e5760405162461bcd60e51b815260206004820152600a60248201526913db9b1e481d985d5b1d60b21b60448201526064015b60405180910390fd5b604051631a4ca37b60e21b81526001600160a01b037f00000000000000000000000000000000000000000000000000000000000000001660048201526024810182905233604482015260009073794a61358d6845594f94dc1db02a252b5b4814ad906369328dec906064016020604051808303816000875af11580156102b8573d6000803e3d6000fd5b505050506040513d601f19601f820116820180604052508101906102dc91906107fc565b60405181815290915033907f7084f5476618d8e60b11ef0d7d3f06914655adb8793e28ff7f018d4c76d505d59060200160405180910390a25050565b610320610665565b600180546001600160a01b0319166001600160a01b0392909216919091179055565b6040516370a0823160e01b81523060048201526000907f00000000000000000000000000000000000000000000000000000000000000006001600160a01b0316906370a0823190602401602060405180830381865afa1580156103a9573d6000803e3d6000fd5b505050506040513d601f19601f820116820180604052508101906103cd91906107fc565b92915050565b6103db610665565b6103e56000610692565b565b6001546001600160a01b0316331461042e5760405162461bcd60e51b815260206004820152600a60248201526913db9b1e481d985d5b1d60b21b6044820152606401610225565b600081116104735760405162461bcd60e51b81526020600482015260126024820152710416d6f756e74206d757374206265203e20360741b6044820152606401610225565b6104a86001600160a01b037f0000000000000000000000000000000000000000000000000000000000000000163330846106e2565b60405163095ea7b360e01b815273794a61358d6845594f94dc1db02a252b5b4814ad6004820152602481018290527f00000000000000000000000000000000000000000000000000000000000000006001600160a01b03169063095ea7b3906044016020604051808303816000875af1158015610529573d6000803e3d6000fd5b505050506040513d601f19601f8201168201806040525081019061054d9190610815565b5060405163617ba03760e01b81526001600160a01b037f0000000000000000000000000000000000000000000000000000000000000000166004820152602481018290523060448201526000606482015273794a61358d6845594f94dc1db02a252b5b4814ad9063617ba03790608401600060405180830381600087803b1580156105d757600080fd5b505af11580156105eb573d6000803e3d6000fd5b50506040518381523392507f2da466a7b24304f47e87fa2e1e5a81b9831ce54fec19055ce277ca2f39ba42c4915060200160405180910390a250565b61062f610665565b6001600160a01b03811661065957604051631e4fbdf760e01b815260006004820152602401610225565b61066281610692565b50565b6000546001600160a01b031633146103e55760405163118cdaa760e01b8152336004820152602401610225565b600080546001600160a01b038381166001600160a01b0319831681178455604051919092169283917f8be0079c531659141344cd1fd0a4f28419497f9722a3daafe3b4186f6b6457e09190a35050565b604080516001600160a01b0385811660248301528416604482015260648082018490528251808303909101815260849091019091526020810180516001600160e01b03166323b872dd60e01b17905261073c908590610742565b50505050565b600080602060008451602086016000885af180610765576040513d6000823e3d81fd5b50506000513d9150811561077d57806001141561078a565b6001600160a01b0384163b155b1561073c57604051635274afe760e01b81526001600160a01b0385166004820152602401610225565b6000602082840312156107c557600080fd5b5035919050565b6000602082840312156107de57600080fd5b81356001600160a01b03811681146107f557600080fd5b9392505050565b60006020828403121561080e57600080fd5b5051919050565b60006020828403121561082757600080fd5b815180151581146107f557600080fdfea264697066735822122057d78d10bc470fd71c7eb60ca3eb57208e5a0056f0b7f9cc72e3a437503dd04a64736f6c63430008140033",
  "linkReferences": {},
  "deployedLinkReferences": {}
}