{
  "_format": "hh-sol-artifact-1",
  "contractName": "MockAaveAdapter",
  "sourceName": "contracts/MockAaveAdapter.sol",
  "abi": [
    {
      "inputs": [
        {
          "internalType": "address",
          "name": "_asset",
          "type": "address"
        }
      ],
      "stateMutability": "nonpayable",
      "type": "constructor"
    },
    {
      "inputs": [
        {
          "internalType": "address",
          "name": "token",
          "type": "address"
        }
      ],
      "name": "SafeERC20FailedOperation",
      "type": "error"
    },
    {
      "anonymous": false,
      "inputs": [
        {
          "indexed": true,
          "internalType": "address",
          "name": "user",
          "type": "address"
        },
        {
          "indexed": false,
          "internalType": "uint256",
          "name": "amount",
          "type": "uint256"
        }
      ],
      "name": "Deposited",
      "type": "event"
    },
    {
      "anonymous": false,
      "inputs": [
        {
          "indexed": true,
          "internalType": "address",
          "name": "user",
          "type": "address"
        },
        {
          "indexed": false,
          "internalType": "uint256",
          "name": "amount",
          "type": "uint256"
        }
      ],
      "name": "Withdrawn",
      "type": "event"
    },
    {
      "inputs": [],
      "name": "MOCK_APY",
      "outputs": [
        {
          "internalType": "uint256",
          "name": "",
          "type": "uint256"
        }
      ],
      "stateMutability": "view",
      "type": "function"
    },
    {
      "inputs": [],
      "name": "asset",
      "outputs": [
        {
          "internalType": "contract IERC20",
          "name": "",
          "type": "address"
        }
      ],
      "stateMutability": "view",
      "type": "function"
    },
    {
      "inputs": [
        {
          "internalType": "address",
          "name": "user",
          "type": "address"
        }
      ],
      "name": "balanceOf",
      "outputs": [
        {
          "internalType": "uint256",
          "name": "",
          "type": "uint256"
        }
      ],
      "stateMutability": "view",
      "type": "function"
    },
    {
      "inputs": [
        {
          "internalType": "uint256",
          "name": "amount",
          "type": "uint256"
        }
      ],
      "name": "deposit",
      "outputs": [],
      "stateMutability": "nonpayable",
      "type": "function"
    },
    {
      "inputs": [
        {
          "internalType": "address",
          "name": "",
          "type": "address"
        }
      ],
      "name": "deposits",
      "outputs": [
        {
          "internalType": "uint256",
          "name": "",
          "type": "uint256"
        }
      ],
      "stateMutability": "view",
      "type": "function"
    },
    {
      "inputs": [],
      "name": "getCurrentAPY",
      "outputs": [
        {
          "internalType": "uint256",
          "name": "",
          "type": "uint256"
        }
      ],
      "stateMutability": "pure",
      "type": "function"
    },
    {
      "inputs": [
        {
          "internalType": "address",
          "name": "",
          "type": "address"
        }
      ],
      "name": "lastUpdateTime",
      "outputs": [
        {
          "internalType": "uint256",
          "name": "",
          "type": "uint256"
        }
      ],
      "stateMutability": "view",
      "type": "function"
    },
    {
      "inputs": [
        {
          "internalType": "uint256",
          "name": "amount",
          "type": "uint256"
        }
      ],
      "name": "withdraw",
      "outputs": [],
      "stateMutability": "nonpayable",
      "type": "function"
    }
  ],
  "bytecode": "0x60a060405234801561001057600080fd5b5060405161070e38038061070e83398101604081905261002f91610040565b6001600160a01b0316608052610070565b60006020828403121561005257600080fd5b81516001600160a01b038116811461006957600080fd5b9392505050565b6080516106766100986000396000818160e30152818161020101526102f001526106766000f3fe608060405234801561001057600080fd5b50600436106100885760003560e01c806370a082311161005b57806370a082311461011d578063962ca49614610130578063b6b55f2514610138578063fc7e286d1461014b57600080fd5b80631bfd9e671461008d5780632ce9aead146100a95780632e1a7d4d146100c957806338d52e0f146100de575b600080fd5b6100966101f481565b6040519081526020015b60405180910390f35b6100966100b7366004610589565b60016020526000908152604090205481565b6100dc6100d73660046105b2565b61016b565b005b6101057f000000000000000000000000000000000000000000000000000000000000000081565b6040516001600160a01b0390911681526020016100a0565b61009661012b366004610589565b610261565b6101f4610096565b6100dc6101463660046105b2565b610295565b610096610159366004610589565b60006020819052908152604090205481565b61017433610380565b336000908152602081905260409020548111156101cf5760405162461bcd60e51b8152602060048201526014602482015273496e73756666696369656e742062616c616e636560601b60448201526064015b60405180910390fd5b33600090815260208190526040812080548392906101ee9084906105e1565b9091555061022890506001600160a01b037f00000000000000000000000000000000000000000000000000000000000000001633836103de565b60405181815233907f7084f5476618d8e60b11ef0d7d3f06914655adb8793e28ff7f018d4c76d505d5906020015b60405180910390a250565b600061026c82610442565b6001600160a01b03831660009081526020819052604090205461028f91906105f4565b92915050565b600081116102da5760405162461bcd60e51b81526020600482015260126024820152710416d6f756e74206d757374206265203e20360741b60448201526064016101c6565b6102e333610380565b6103186001600160a01b037f0000000000000000000000000000000000000000000000000000000000000000163330846104d9565b33600090815260208190526040812080548392906103379084906105f4565b90915550503360008181526001602052604090819020429055517f2da466a7b24304f47e87fa2e1e5a81b9831ce54fec19055ce277ca2f39ba42c4906102569084815260200190565b600061038b82610442565b905080156103c1576001600160a01b038216600090815260208190526040812080548392906103bb9084906105f4565b90915550505b506001600160a01b03166000908152600160205260409020429055565b6040516001600160a01b0383811660248301526044820183905261043d91859182169063a9059cbb906064015b604051602081830303815290604052915060e01b6020820180516001600160e01b038381831617835250505050610518565b505050565b6001600160a01b038116600090815260208190526040812054810361046957506000919050565b6001600160a01b03821660009081526001602052604081205461048c90426105e1565b6001600160a01b03841660009081526020819052604090205490915064496cebb8009082906104be906101f490610607565b6104c89190610607565b6104d2919061061e565b9392505050565b6040516001600160a01b0384811660248301528381166044830152606482018390526105129186918216906323b872dd9060840161040b565b50505050565b600080602060008451602086016000885af18061053b576040513d6000823e3d81fd5b50506000513d91508115610553578060011415610560565b6001600160a01b0384163b155b1561051257604051635274afe760e01b81526001600160a01b03851660048201526024016101c6565b60006020828403121561059b57600080fd5b81356001600160a01b03811681146104d257600080fd5b6000602082840312156105c457600080fd5b5035919050565b634e487b7160e01b600052601160045260246000fd5b8181038181111561028f5761028f6105cb565b8082018082111561028f5761028f6105cb565b808202811582820484141761028f5761028f6105cb565b60008261063b57634e487b7160e01b600052601260045260246000fd5b50049056fea2646970667358221220c0811120c95bc3b9358d60f7ba30ee46cde3d80459e8a58238d5b2088b70af9164736f6c63430008140033",
  "linkReferences": {},
  "deployedLinkReferences": {}
}