{
  "_format": "hh-sol-artifact-1",
  "contractName": "RebalanceExecutor",
  "sourceName": "contracts/RebalanceExecutor.sol",
  "abi": [
    {
      "inputs": [
        {
          "internalType": "address",
          "name": "_masterVault",
          "type": "address"
        }
      ],
      "stateMutability": "nonpayable",
      "type": "constructor"
    },
    {
      "inputs": [
        {
          "internalType": "address",
          "name": "owner",
          "type": "address"
        }
      ],
      "name": "OwnableInvalidOwner",
      "type": "error"
    },
    {
      "inputs": [
        {
          "internalType": "address",
          "name": "account",
          "type": "address"
        }
      ],
      "name": "OwnableUnauthorizedAccount",
      "type": "error"
    },
    {
      "inputs": [
        {
          "internalType": "address",
          "name": "token",
          "type": "address"
        }
      ],
      "name": "SafeERC20FailedOperation",
      "type": "error"
    },
    {
      "anonymous": false,
      "inputs": [
        {
          "indexed": true,
          "internalType": "bytes32",
          "name": "messageId",
          "type": "bytes32"
        },
        {
          "indexed": false,
          "internalType": "bytes",
          "name": "data",
          "type": "bytes"
        }
      ],
      "name": "ExecutionReceived",
      "type": "event"
    },
    {
      "anonymous": false,
      "inputs": [
        {
          "indexed": true,
          "internalType": "address",
          "name": "previousOwner",
          "type": "address"
        },
        {
          "indexed": true,
          "internalType": "address",
          "name": "newOwner",
          "type": "address"
        }
      ],
      "name": "OwnershipTransferred",
      "type": "event"
    },
    {
      "anonymous": false,
      "inputs": [
        {
          "indexed": true,
          "internalType": "bytes32",
          "name": "messageId",
          "type": "bytes32"
        },
        {
          "indexed": false,
          "internalType": "address",
          "name": "strategy",
          "type": "address"
        },
        {
          "indexed": false,
          "internalType": "uint256",
          "name": "amount",
          "type": "uint256"
        }
      ],
      "name": "RebalanceExecuted",
      "type": "event"
    },
    {
      "anonymous": false,
      "inputs": [
        {
          "indexed": true,
          "internalType": "address",
          "name": "strategy",
          "type": "address"
        }
      ],
      "name": "StrategySet",
      "type": "event"
    },
    {
      "inputs": [
        {
          "internalType": "address",
          "name": "token",
          "type": "address"
        },
        {
          "internalType": "address",
          "name": "strategy",
          "type": "address"
        },
        {
          "internalType": "uint256",
          "name": "amount",
          "type": "uint256"
        }
      ],
      "name": "executeRebalanceWithTransfer",
      "outputs": [],
      "stateMutability": "nonpayable",
      "type": "function"
    },
    {
      "inputs": [
        {
          "internalType": "bytes",
          "name": "data",
          "type": "bytes"
        }
      ],
      "name": "executeStrategy",
      "outputs": [],
      "stateMutability": "nonpayable",
      "type": "function"
    },
    {
      "inputs": [],
      "name": "getAllRebalances",
      "outputs": [
        {
          "internalType": "bytes32[]",
          "name": "",
          "type": "bytes32[]"
        }
      ],
      "stateMutability": "view",
      "type": "function"
    },
    {
      "inputs": [
        {
          "internalType": "uint256",
          "name": "index",
          "type": "uint256"
        }
      ],
      "name": "getRebalanceByIndex",
      "outputs": [
        {
          "internalType": "bytes32",
          "name": "messageId",
          "type": "bytes32"
        },
        {
          "internalType": "uint256",
          "name": "amount",
          "type": "uint256"
        },
        {
          "internalType": "address",
          "name": "strategy",
          "type": "address"
        },
        {
          "internalType": "uint256",
          "name": "timestamp",
          "type": "uint256"
        },
        {
          "internalType": "bool",
          "name": "executed",
          "type": "bool"
        }
      ],
      "stateMutability": "view",
      "type": "function"
    },
    {
      "inputs": [],
      "name": "getRebalanceCount",
      "outputs": [
        {
          "internalType": "uint256",
          "name": "",
          "type": "uint256"
        }
      ],
      "stateMutability": "view",
      "type": "function"
    },
    {
      "inputs": [],
      "name": "masterVault",
      "outputs": [
        {
          "internalType": "address",
          "name": "",
          "type": "address"
        }
      ],
      "stateMutability": "view",
      "type": "function"
    },
    {
      "inputs": [],
      "name": "owner",
      "outputs": [
        {
          "internalType": "address",
          "name": "",
          "type": "address"
        }
      ],
      "stateMutability": "view",
      "type": "function"
    },
    {
      "inputs": [
        {
          "internalType": "uint256",
          "name": "",
          "type": "uint256"
        }
      ],
      "name": "rebalanceHistory",
      "outputs": [
        {
          "internalType": "bytes32",
          "name": "",
          "type": "bytes32"
        }
      ],
      "stateMutability": "view",
      "type": "function"
    },
    {
      "inputs": [
        {
          "internalType": "bytes32",
          "name": "",
          "type": "bytes32"
        }
      ],
      "name": "rebalances",
      "outputs": [
        {
          "internalType": "bytes32",
          "name": "messageId",
          "type": "bytes32"
        },
        {
          "internalType": "uint256",
          "name": "amount",
          "type": "uint256"
        },
        {
          "internalType": "address",
          "name": "strategy",
          "type": "address"
        },
        {
          "internalType": "uint256",
          "name": "timestamp",
          "type": "uint256"
        },
        {
          "internalType": "bool",
          "name": "executed",
          "type": "bool"
        }
      ],
      "stateMutability": "view",
      "type": "function"
    },
    {
      "inputs": [],
      "name": "renounceOwnership",
      "outputs": [],
      "stateMutability": "nonpayable",
      "type": "function"
    },
    {
      "inputs": [
        {
          "internalType": "address",
          "name": "_masterVault",
          "type": "address"
        }
      ],
      "name": "setMasterVault",
      "outputs": [],
      "stateMutability": "nonpayable",
      "type": "function"
    },
    {
      "inputs": [
        {
          "internalType": "address",
          "name": "_strategy",
          "type": "address"
        }
      ],
      "name": "setZkevmStrategy",
      "outputs": [],
      "stateMutability": "nonpayable",
      "type": "function"
    },
    {
      "inputs": [
        {
          "internalType": "address",
          "name": "newOwner",
          "type": "address"
        }
      ],
      "name": "transferOwnership",
      "outputs": [],
      "stateMutability": "nonpayable",
      "type": "function"
    },
    {
      "inputs": [],
      "name": "zkevmStrategy",
      "outputs": [
        {
          "internalType": "address",
          "name": "",
          "type": "address"
        }
      ],
      "stateMutability": "view",
      "type": "function"
    }
  ],
  "bytecode": "0x608060405234801561001057600080fd5b50604051610d16380380610d1683398101604081905261002f916100d4565b338061005557604051631e4fbdf760e01b81526000600482015260240160405180910390fd5b61005e81610084565b50600180546001600160a01b0319166001600160a01b0392909216919091179055610104565b600080546001600160a01b038381166001600160a01b0319831681178455604051919092169283917f8be0079c531659141344cd1fd0a4f28419497f9722a3daafe3b4186f6b6457e09190a35050565b6000602082840312156100e657600080fd5b81516001600160a01b03811681146100fd57600080fd5b9392505050565b610c03806101136000396000f3fe608060405234801561001057600080fd5b50600436106100ea5760003560e01c8063715018a61161008c578063a9edf1f611610066578063a9edf1f6146101c4578063d3e915bd14610247578063dd7e672b1461025a578063f2fde38b1461026d57600080fd5b8063715018a614610198578063822f4b43146101a05780638da5cb5b146101b357600080fd5b80633b7e3775116100c85780633b7e377514610135578063474e4134146101605780634c39ad48146101725780635bf306d41461018557600080fd5b80630fa73166146100ef578063189936f614610104578063279c671c14610117575b600080fd5b6101026100fd366004610a2d565b610280565b005b610102610112366004610a51565b6102f7565b61011f6104a8565b60405161012c9190610ac3565b60405180910390f35b600154610148906001600160a01b031681565b6040516001600160a01b03909116815260200161012c565b6004545b60405190815260200161012c565b610164610180366004610b07565b610500565b600254610148906001600160a01b031681565b610102610521565b6101026101ae366004610a2d565b610535565b6000546001600160a01b0316610148565b61020f6101d2366004610b07565b600360208190526000918252604090912080546001820154600283015493830154600490930154919390926001600160a01b039091169160ff1685565b6040805195865260208601949094526001600160a01b039092169284019290925260608301919091521515608082015260a00161012c565b610102610255366004610b20565b6105d0565b61020f610268366004610b07565b6107ae565b61010261027b366004610a2d565b61088f565b6102886108cd565b6001600160a01b0381166102d55760405162461bcd60e51b815260206004820152600f60248201526e496e76616c6964206164647265737360881b60448201526064015b60405180910390fd5b600180546001600160a01b0319166001600160a01b0392909216919091179055565b6102ff6108cd565b6000808061030f84860186610b61565b600083815260036020526040902060040154929550909350915060ff161561036c5760405162461bcd60e51b815260206004820152601060248201526f105b1c9958591e48195e1958dd5d195960821b60448201526064016102cc565b6040805160a08101825284815260208082018481526001600160a01b03868116848601908152426060860190815260016080870181815260008c81526003978890528981209851895595518883015592516002880180546001600160a01b0319169190951617909355519385019390935591516004938401805460ff191691151591909117905582549182018355919091527f8a35acfbc15ff81a39ae7d344fd709f28e8600b4aa8c65c6b64bfe7fe36bd19b018490555183907fd0e4f3f576deb5a3dd597875eee1325835f1e1b185a54598cea9200b5b88c980906104559088908890610b88565b60405180910390a2604080516001600160a01b03841681526020810183905284917fc8ced9d5cac4e1c305dac7d8296a557e9e0b8478023b2412d31102c64af4bc12910160405180910390a25050505050565b606060048054806020026020016040519081016040528092919081815260200182805480156104f657602002820191906000526020600020905b8154815260200190600101908083116104e2575b5050505050905090565b6004818154811061051057600080fd5b600091825260209091200154905081565b6105296108cd565b61053360006108fa565b565b61053d6108cd565b6001600160a01b0381166105865760405162461bcd60e51b815260206004820152601060248201526f496e76616c696420737472617465677960801b60448201526064016102cc565b600280546001600160a01b0319166001600160a01b0383169081179091556040517fe70d79dad95c835bdd87e9cf4665651c9e5abb3b756e4fd2bf45f29c95c3aa4090600090a250565b6105d86108cd565b6001600160a01b0382166106215760405162461bcd60e51b815260206004820152601060248201526f496e76616c696420737472617465677960801b60448201526064016102cc565b600081116106625760405162461bcd60e51b815260206004820152600e60248201526d125b9d985b1a5908185b5bdd5b9d60921b60448201526064016102cc565b6040805142602080830191909152606085901b6bffffffffffffffffffffffff191682840152605480830185905283518084039091018152607490920190925280519101206106bb6001600160a01b038516848461094a565b6040805160a08101825282815260208082018581526001600160a01b03878116848601818152426060870190815260016080880181815260008b81526003808a528b82209a518b5597518a840155935160028a0180546001600160a01b031916919097161790955590519487019490945591516004958601805460ff1916911515919091179055845492830185559390527f8a35acfbc15ff81a39ae7d344fd709f28e8600b4aa8c65c6b64bfe7fe36bd19b018490558251918252810184905282917fc8ced9d5cac4e1c305dac7d8296a557e9e0b8478023b2412d31102c64af4bc12910160405180910390a250505050565b600080600080600060048054905086106108005760405162461bcd60e51b8152602060048201526013602482015272496e646578206f7574206f6620626f756e647360681b60448201526064016102cc565b60006004878154811061081557610815610bb7565b60009182526020808320919091015482526003808252604092839020835160a0810185528154808252600183015494820185905260028301546001600160a01b0316958201869052928201546060820181905260049092015460ff1615156080909101819052919b929a5092985091965090945092505050565b6108976108cd565b6001600160a01b0381166108c157604051631e4fbdf760e01b8152600060048201526024016102cc565b6108ca816108fa565b50565b6000546001600160a01b031633146105335760405163118cdaa760e01b81523360048201526024016102cc565b600080546001600160a01b038381166001600160a01b0319831681178455604051919092169283917f8be0079c531659141344cd1fd0a4f28419497f9722a3daafe3b4186f6b6457e09190a35050565b604080516001600160a01b038416602482015260448082018490528251808303909101815260649091019091526020810180516001600160e01b031663a9059cbb60e01b17905261099c9084906109a1565b505050565b600080602060008451602086016000885af1806109c4576040513d6000823e3d81fd5b50506000513d915081156109dc5780600114156109e9565b6001600160a01b0384163b155b15610a1257604051635274afe760e01b81526001600160a01b03851660048201526024016102cc565b50505050565b6001600160a01b03811681146108ca57600080fd5b600060208284031215610a3f57600080fd5b8135610a4a81610a18565b9392505050565b60008060208385031215610a6457600080fd5b823567ffffffffffffffff80821115610a7c57600080fd5b818501915085601f830112610a9057600080fd5b813581811115610a9f57600080fd5b866020828501011115610ab157600080fd5b60209290920196919550909350505050565b6020808252825182820181905260009190848201906040850190845b81811015610afb57835183529284019291840191600101610adf565b50909695505050505050565b600060208284031215610b1957600080fd5b5035919050565b600080600060608486031215610b3557600080fd5b8335610b4081610a18565b92506020840135610b5081610a18565b929592945050506040919091013590565b600080600060608486031215610b7657600080fd5b833592506020840135610b5081610a18565b60208152816020820152818360408301376000818301604090810191909152601f909201601f19160101919050565b634e487b7160e01b600052603260045260246000fdfea264697066735822122092c783577e1d12253f3c2597208ff8c0ed64b3c0dcafdf35c5229356a048ea2d64736f6c63430008140033",
  "linkReferences": {},
  "deployedLinkReferences": {}
}