{
  "_format": "hh-sol-artifact-1",
  "contractName": "MasterVault",
  "sourceName": "contracts/MasterVault.sol",
  "abi": [
    {
      "inputs": [
        {
          "internalType": "address",
          "name": "_asset",
          "type": "address"
        },
        {
          "internalType": "string",
          "name": "_name",
          "type": "string"
        },
        {
          "internalType": "string",
          "name": "_symbol",
          "type": "string"
        }
      ],
      "stateMutability": "nonpayable",
      "type": "constructor"
    },
    {
      "inputs": [
        {
          "internalType": "address",
          "name": "spender",
          "type": "address"
        },
        {
          "internalType": "uint256",
          "name": "allowance",
          "type": "uint256"
        },
        {
          "internalType": "uint256",
          "name": "needed",
          "type": "uint256"
        }
      ],
      "name": "ERC20InsufficientAllowance",
      "type": "error"
    },
    {
      "inputs": [
        {
          "internalType": "address",
          "name": "sender",
          "type": "address"
        },
        {
          "internalType": "uint256",
          "name": "balance",
          "type": "uint256"
        },
        {
          "internalType": "uint256",
          "name": "needed",
          "type": "uint256"
        }
      ],
      "name": "ERC20InsufficientBalance",
      "type": "error"
    },
    {
      "inputs": [
        {
          "internalType": "address",
          "name": "approver",
          "type": "address"
        }
      ],
      "name": "ERC20InvalidApprover",
      "type": "error"
    },
    {
      "inputs": [
        {
          "internalType": "address",
          "name": "receiver",
          "type": "address"
        }
      ],
      "name": "ERC20InvalidReceiver",
      "type": "error"
    },
    {
      "inputs": [
        {
          "internalType": "address",
          "name": "sender",
          "type": "address"
        }
      ],
      "name": "ERC20InvalidSender",
      "type": "error"
    },
    {
      "inputs": [
        {
          "internalType": "address",
          "name": "spender",
          "type": "address"
        }
      ],
      "name": "ERC20InvalidSpender",
      "type": "error"
    },
    {
      "inputs": [
        {
          "internalType": "address",
          "name": "owner",
          "type": "address"
        }
      ],
      "name": "OwnableInvalidOwner",
      "type": "error"
    },
    {
      "inputs": [
        {
          "internalType": "address",
          "name": "account",
          "type": "address"
        }
      ],
      "name": "OwnableUnauthorizedAccount",
      "type": "error"
    },
    {
      "inputs": [],
      "name": "ReentrancyGuardReentrantCall",
      "type": "error"
    },
    {
      "inputs": [
        {
          "internalType": "address",
          "name": "token",
          "type": "address"
        }
      ],
      "name": "SafeERC20FailedOperation",
      "type": "error"
    },
    {
      "anonymous": false,
      "inputs": [
        {
          "indexed": true,
          "internalType": "address",
          "name": "owner",
          "type": "address"
        },
        {
          "indexed": true,
          "internalType": "address",
          "name": "spender",
          "type": "address"
        },
        {
          "indexed": false,
          "internalType": "uint256",
          "name": "value",
          "type": "uint256"
        }
      ],
      "name": "Approval",
      "type": "event"
    },
    {
      "anonymous": false,
      "inputs": [
        {
          "indexed": true,
          "internalType": "bytes32",
          "name": "messageId",
          "type": "bytes32"
        },
        {
          "indexed": false,
          "internalType": "uint256",
          "name": "amount",
          "type": "uint256"
        }
      ],
      "name": "CrossChainRebalanceInitiated",
      "type": "event"
    },
    {
      "anonymous": false,
      "inputs": [
        {
          "indexed": true,
          "internalType": "address",
          "name": "user",
          "type": "address"
        },
        {
          "indexed": false,
          "internalType": "uint256",
          "name": "assets",
          "type": "uint256"
        },
        {
          "indexed": false,
          "internalType": "uint256",
          "name": "shares",
          "type": "uint256"
        }
      ],
      "name": "Deposited",
      "type": "event"
    },
    {
      "anonymous": false,
      "inputs": [
        {
          "indexed": true,
          "internalType": "address",
          "name": "previousOwner",
          "type": "address"
        },
        {
          "indexed": true,
          "internalType": "address",
          "name": "newOwner",
          "type": "address"
        }
      ],
      "name": "OwnershipTransferred",
      "type": "event"
    },
    {
      "anonymous": false,
      "inputs": [
        {
          "indexed": true,
          "internalType": "address",
          "name": "strategy",
          "type": "address"
        },
        {
          "indexed": false,
          "internalType": "uint256",
          "name": "amount",
          "type": "uint256"
        },
        {
          "indexed": false,
          "internalType": "uint256",
          "name": "timestamp",
          "type": "uint256"
        }
      ],
      "name": "Rebalanced",
      "type": "event"
    },
    {
      "anonymous": false,
      "inputs": [
        {
          "indexed": true,
          "internalType": "address",
          "name": "strategy",
          "type": "address"
        },
        {
          "indexed": false,
          "internalType": "uint256",
          "name": "allocation",
          "type": "uint256"
        }
      ],
      "name": "StrategyAdded",
      "type": "event"
    },
    {
      "anonymous": false,
      "inputs": [
        {
          "indexed": true,
          "internalType": "address",
          "name": "from",
          "type": "address"
        },
        {
          "indexed": true,
          "internalType": "address",
          "name": "to",
          "type": "address"
        },
        {
          "indexed": false,
          "internalType": "uint256",
          "name": "value",
          "type": "uint256"
        }
      ],
      "name": "Transfer",
      "type": "event"
    },
    {
      "anonymous": false,
      "inputs": [
        {
          "indexed": true,
          "internalType": "address",
          "name": "user",
          "type": "address"
        },
        {
          "indexed": false,
          "internalType": "uint256",
          "name": "assets",
          "type": "uint256"
        },
        {
          "indexed": false,
          "internalType": "uint256",
          "name": "shares",
          "type": "uint256"
        }
      ],
      "name": "Withdrawn",
      "type": "event"
    },
    {
      "inputs": [],
      "name": "aaveAdapter",
      "outputs": [
        {
          "internalType": "address",
          "name": "",
          "type": "address"
        }
      ],
      "stateMutability": "view",
      "type": "function"
    },
    {
      "inputs": [
        {
          "internalType": "address",
          "name": "owner",
          "type": "address"
        },
        {
          "internalType": "address",
          "name": "spender",
          "type": "address"
        }
      ],
      "name": "allowance",
      "outputs": [
        {
          "internalType": "uint256",
          "name": "",
          "type": "uint256"
        }
      ],
      "stateMutability": "view",
      "type": "function"
    },
    {
      "inputs": [
        {
          "internalType": "address",
          "name": "spender",
          "type": "address"
        },
        {
          "internalType": "uint256",
          "name": "value",
          "type": "uint256"
        }
      ],
      "name": "approve",
      "outputs": [
        {
          "internalType": "bool",
          "name": "",
          "type": "bool"
        }
      ],
      "stateMutability": "nonpayable",
      "type": "function"
    },
    {
      "inputs": [],
      "name": "asset",
      "outputs": [
        {
          "internalType": "contract IERC20",
          "name": "",
          "type": "address"
        }
      ],
      "stateMutability": "view",
      "type": "function"
    },
    {
      "inputs": [
        {
          "internalType": "address",
          "name": "account",
          "type": "address"
        }
      ],
      "name": "balanceOf",
      "outputs": [
        {
          "internalType": "uint256",
          "name": "",
          "type": "uint256"
        }
      ],
      "stateMutability": "view",
      "type": "function"
    },
    {
      "inputs": [
        {
          "internalType": "uint256",
          "name": "shares",
          "type": "uint256"
        }
      ],
      "name": "convertToAssets",
      "outputs": [
        {
          "internalType": "uint256",
          "name": "",
          "type": "uint256"
        }
      ],
      "stateMutability": "view",
      "type": "function"
    },
    {
      "inputs": [
        {
          "internalType": "uint256",
          "name": "assets",
          "type": "uint256"
        }
      ],
      "name": "convertToShares",
      "outputs": [
        {
          "internalType": "uint256",
          "name": "",
          "type": "uint256"
        }
      ],
      "stateMutability": "view",
      "type": "function"
    },
    {
      "inputs": [],
      "name": "decimals",
      "outputs": [
        {
          "internalType": "uint8",
          "name": "",
          "type": "uint8"
        }
      ],
      "stateMutability": "view",
      "type": "function"
    },
    {
      "inputs": [
        {
          "internalType": "uint256",
          "name": "assets",
          "type": "uint256"
        },
        {
          "internalType": "address",
          "name": "receiver",
          "type": "address"
        }
      ],
      "name": "deposit",
      "outputs": [
        {
          "internalType": "uint256",
          "name": "shares",
          "type": "uint256"
        }
      ],
      "stateMutability": "nonpayable",
      "type": "function"
    },
    {
      "inputs": [
        {
          "internalType": "address",
          "name": "token",
          "type": "address"
        },
        {
          "internalType": "uint256",
          "name": "amount",
          "type": "uint256"
        }
      ],
      "name": "emergencyWithdraw",
      "outputs": [],
      "stateMutability": "nonpayable",
      "type": "function"
    },
    {
      "inputs": [],
      "name": "getTVL",
      "outputs": [
        {
          "internalType": "uint256",
          "name": "",
          "type": "uint256"
        }
      ],
      "stateMutability": "view",
      "type": "function"
    },
    {
      "inputs": [
        {
          "internalType": "uint256",
          "name": "amount",
          "type": "uint256"
        },
        {
          "internalType": "bytes",
          "name": "data",
          "type": "bytes"
        }
      ],
      "name": "initiateCrossChainRebalance",
      "outputs": [],
      "stateMutability": "nonpayable",
      "type": "function"
    },
    {
      "inputs": [],
      "name": "name",
      "outputs": [
        {
          "internalType": "string",
          "name": "",
          "type": "string"
        }
      ],
      "stateMutability": "view",
      "type": "function"
    },
    {
      "inputs": [],
      "name": "owner",
      "outputs": [
        {
          "internalType": "address",
          "name": "",
          "type": "address"
        }
      ],
      "stateMutability": "view",
      "type": "function"
    },
    {
      "inputs": [],
      "name": "rebalanceExecutor",
      "outputs": [
        {
          "internalType": "address",
          "name": "",
          "type": "address"
        }
      ],
      "stateMutability": "view",
      "type": "function"
    },
    {
      "inputs": [
        {
          "internalType": "uint256",
          "name": "amount",
          "type": "uint256"
        }
      ],
      "name": "rebalanceToAave",
      "outputs": [],
      "stateMutability": "nonpayable",
      "type": "function"
    },
    {
      "inputs": [],
      "name": "renounceOwnership",
      "outputs": [],
      "stateMutability": "nonpayable",
      "type": "function"
    },
    {
      "inputs": [
        {
          "internalType": "address",
          "name": "_aaveAdapter",
          "type": "address"
        }
      ],
      "name": "setAaveAdapter",
      "outputs": [],
      "stateMutability": "nonpayable",
      "type": "function"
    },
    {
      "inputs": [
        {
          "internalType": "address",
          "name": "_executor",
          "type": "address"
        }
      ],
      "name": "setRebalanceExecutor",
      "outputs": [],
      "stateMutability": "nonpayable",
      "type": "function"
    },
    {
      "inputs": [
        {
          "internalType": "address",
          "name": "",
          "type": "address"
        }
      ],
      "name": "strategyAllocations",
      "outputs": [
        {
          "internalType": "uint256",
          "name": "",
          "type": "uint256"
        }
      ],
      "stateMutability": "view",
      "type": "function"
    },
    {
      "inputs": [],
      "name": "symbol",
      "outputs": [
        {
          "internalType": "string",
          "name": "",
          "type": "string"
        }
      ],
      "stateMutability": "view",
      "type": "function"
    },
    {
      "inputs": [],
      "name": "totalAssets",
      "outputs": [
        {
          "internalType": "uint256",
          "name": "",
          "type": "uint256"
        }
      ],
      "stateMutability": "view",
      "type": "function"
    },
    {
      "inputs": [],
      "name": "totalSupply",
      "outputs": [
        {
          "internalType": "uint256",
          "name": "",
          "type": "uint256"
        }
      ],
      "stateMutability": "view",
      "type": "function"
    },
    {
      "inputs": [],
      "name": "totalValueLocked",
      "outputs": [
        {
          "internalType": "uint256",
          "name": "",
          "type": "uint256"
        }
      ],
      "stateMutability": "view",
      "type": "function"
    },
    {
      "inputs": [
        {
          "internalType": "address",
          "name": "to",
          "type": "address"
        },
        {
          "internalType": "uint256",
          "name": "value",
          "type": "uint256"
        }
      ],
      "name": "transfer",
      "outputs": [
        {
          "internalType": "bool",
          "name": "",
          "type": "bool"
        }
      ],
      "stateMutability": "nonpayable",
      "type": "function"
    },
    {
      "inputs": [
        {
          "internalType": "address",
          "name": "from",
          "type": "address"
        },
        {
          "internalType": "address",
          "name": "to",
          "type": "address"
        },
        {
          "internalType": "uint256",
          "name": "value",
          "type": "uint256"
        }
      ],
      "name": "transferFrom",
      "outputs": [
        {
          "internalType": "bool",
          "name": "",
          "type": "bool"
        }
      ],
      "stateMutability": "nonpayable",
      "type": "function"
    },
    {
      "inputs": [
        {
          "internalType": "address",
          "name": "newOwner",
          "type": "address"
        }
      ],
      "name": "transferOwnership",
      "outputs": [],
      "stateMutability": "nonpayable",
      "type": "function"
    },
    {
      "inputs": [
        {
          "internalType": "uint256",
          "name": "shares",
          "type": "uint256"
        },
        {
          "internalType": "address",
          "name": "receiver",
          "type": "address"
        },
        {
          "internalType": "address",
          "name": "owner",
          "type": "address"
        }
      ],
      "name": "withdraw",
      "outputs": [
        {
          "internalType": "uint256",
          "name": "assets",
          "type": "uint256"
        }
      ],
      "stateMutability": "nonpayable",
      "type": "function"
    },
    {
      "inputs": [
        {
          "internalType": "uint256",
          "name": "amount",
          "type": "uint256"
        }
      ],
      "name": "withdrawFromAave",
      "outputs": [],
      "stateMutability": "nonpayable",
      "type": "function"
    }
  ],
  "bytecode": "0x60a06040523480156200001157600080fd5b5060405162001cd438038062001cd48339810160408190526200003491620001c2565b3382826003620000458382620002db565b506004620000548282620002db565b5050506001600160a01b0381166200008657604051631e4fbdf760e01b81526000600482015260240160405180910390fd5b6200009181620000ab565b50506001600655506001600160a01b0316608052620003a7565b600580546001600160a01b038381166001600160a01b0319831681179093556040519116919082907f8be0079c531659141344cd1fd0a4f28419497f9722a3daafe3b4186f6b6457e090600090a35050565b634e487b7160e01b600052604160045260246000fd5b600082601f8301126200012557600080fd5b81516001600160401b0380821115620001425762000142620000fd565b604051601f8301601f19908116603f011681019082821181831017156200016d576200016d620000fd565b816040528381526020925086838588010111156200018a57600080fd5b600091505b83821015620001ae57858201830151818301840152908201906200018f565b600093810190920192909252949350505050565b600080600060608486031215620001d857600080fd5b83516001600160a01b0381168114620001f057600080fd5b60208501519093506001600160401b03808211156200020e57600080fd5b6200021c8783880162000113565b935060408601519150808211156200023357600080fd5b50620002428682870162000113565b9150509250925092565b600181811c908216806200026157607f821691505b6020821081036200028257634e487b7160e01b600052602260045260246000fd5b50919050565b601f821115620002d657600081815260208120601f850160051c81016020861015620002b15750805b601f850160051c820191505b81811015620002d257828155600101620002bd565b5050505b505050565b81516001600160401b03811115620002f757620002f7620000fd565b6200030f816200030884546200024c565b8462000288565b602080601f8311600181146200034757600084156200032e5750858301515b600019600386901b1c1916600185901b178555620002d2565b600085815260208120601f198616915b82811015620003785788860151825594840194600190910190840162000357565b5085821015620003975787850151600019600388901b60f8161c191681555b5050505050600190811b01905550565b6080516118ee620003e6600039600081816102910152818161044c0152818161066b0152818161074801528181610bfd0152610e5201526118ee6000f3fe608060405234801561001057600080fd5b50600436106101cf5760003560e01c8063715018a611610104578063b460af94116100a2578063d77ab72d11610071578063d77ab72d146103e8578063dd62ed3e146103fb578063ec18154e1461040e578063f2fde38b1461041757600080fd5b8063b460af941461039c578063bdf20706146103af578063c6e6f592146103c2578063ce6e13ff146103d557600080fd5b806395d89b41116100de57806395d89b411461035957806397b3fcaa146103615780639acf5d3414610369578063a9059cbb1461038957600080fd5b8063715018a61461032d5780638da5cb5b1461033557806395ccea671461034657600080fd5b8063260f8e2211610171578063571eb1141161014b578063571eb114146102cb578063688f237b146102de5780636e553f65146102f157806370a082311461030457600080fd5b8063260f8e221461026a578063313ce5671461027d57806338d52e0f1461028c57600080fd5b8063095ea7b3116101ad578063095ea7b31461021757806318160ddd1461023a57806323b872dd14610242578063254eb8021461025557600080fd5b806301e1d114146101d457806306fdde03146101ef57806307a2d13a14610204575b600080fd5b6101dc61042a565b6040519081526020015b60405180910390f35b6101f76104d8565b6040516101e6919061159a565b6101dc6102123660046115cd565b61056a565b61022a610225366004611602565b6105a9565b60405190151581526020016101e6565b6002546101dc565b61022a61025036600461162c565b6105c3565b6102686102633660046115cd565b6105e7565b005b610268610278366004611668565b6108e8565b604051601281526020016101e6565b6102b37f000000000000000000000000000000000000000000000000000000000000000081565b6040516001600160a01b0390911681526020016101e6565b6007546102b3906001600160a01b031681565b6102686102ec3660046115cd565b6109ed565b6101dc6102ff3660046116e4565b610b2a565b6101dc610312366004611710565b6001600160a01b031660009081526020819052604090205490565b610268610c94565b6005546001600160a01b03166102b3565b610268610354366004611602565b610ca8565b6101f7610cda565b6101dc610ce9565b6101dc610377366004611710565b600a6020526000908152604090205481565b61022a610397366004611602565b610cf8565b6101dc6103aa36600461172b565b610d06565b6102686103bd366004611710565b610ede565b6101dc6103d03660046115cd565b610f83565b6102686103e3366004611710565b610fa9565b6008546102b3906001600160a01b031681565b6101dc610409366004611767565b61101b565b6101dc60095481565b610268610425366004611710565b611046565b6040516370a0823160e01b815230600482015260009081906001600160a01b037f000000000000000000000000000000000000000000000000000000000000000016906370a0823190602401602060405180830381865afa158015610493573d6000803e3d6000fd5b505050506040513d601f19601f820116820180604052508101906104b79190611791565b905080600954826104c891906117c0565b6104d291906117d3565b91505090565b6060600380546104e7906117e6565b80601f0160208091040260200160405190810160405280929190818152602001828054610513906117e6565b80156105605780601f1061053557610100808354040283529160200191610560565b820191906000526020600020905b81548152906001019060200180831161054357829003601f168201915b5050505050905090565b60008061057660025490565b905080156105a0578061058761042a565b6105919085611820565b61059b9190611837565b6105a2565b825b9392505050565b6000336105b7818585611081565b60019150505b92915050565b6000336105d1858285611093565b6105dc8585856110fa565b506001949350505050565b6105ef611159565b6105f7611186565b6007546001600160a01b031661064b5760405162461bcd60e51b815260206004820152601460248201527310585d99481859185c1d195c881b9bdd081cd95d60621b60448201526064015b60405180910390fd5b6000811180156106e257506040516370a0823160e01b81523060048201527f00000000000000000000000000000000000000000000000000000000000000006001600160a01b0316906370a0823190602401602060405180830381865afa1580156106ba573d6000803e3d6000fd5b505050506040513d601f19601f820116820180604052508101906106de9190611791565b8111155b61071f5760405162461bcd60e51b815260206004820152600e60248201526d125b9d985b1a5908185b5bdd5b9d60921b6044820152606401610642565b60075460405163095ea7b360e01b81526001600160a01b039182166004820152602481018390527f00000000000000000000000000000000000000000000000000000000000000009091169063095ea7b3906044016020604051808303816000875af1158015610793573d6000803e3d6000fd5b505050506040513d601f19601f820116820180604052508101906107b79190611859565b50600754604051602481018390526000916001600160a01b03169060440160408051601f198184030181529181526020820180516001600160e01b031663b6b55f2560e01b1790525161080a919061187b565b6000604051808303816000865af19150503d8060008114610847576040519150601f19603f3d011682016040523d82523d6000602084013e61084c565b606091505b50509050806108935760405162461bcd60e51b815260206004820152601360248201527210585d994819195c1bdcda5d0819985a5b1959606a1b6044820152606401610642565b600754604080518481524260208201526001600160a01b03909216917f3645b7cfbb41ac8e6dcc3c4877ede2c60b467a0374b7a7fc7563f0a09580999e910160405180910390a2506108e56001600655565b50565b6108f0611159565b6008546001600160a01b031661093b5760405162461bcd60e51b815260206004820152601060248201526f115e1958dd5d1bdc881b9bdd081cd95d60821b6044820152606401610642565b6000831161097c5760405162461bcd60e51b815260206004820152600e60248201526d125b9d985b1a5908185b5bdd5b9d60921b6044820152606401610642565b6000428484846040516020016109959493929190611897565b604051602081830303815290604052805190602001209050807fc87c467065b469449ad920dbc4d34372113635b588b7d7423a5056ab40f5c298856040516109df91815260200190565b60405180910390a250505050565b6109f5611159565b6109fd611186565b6007546001600160a01b0316610a4c5760405162461bcd60e51b815260206004820152601460248201527310585d99481859185c1d195c881b9bdd081cd95d60621b6044820152606401610642565b600754604051602481018390526000916001600160a01b03169060440160408051601f198184030181529181526020820180516001600160e01b0316632e1a7d4d60e01b17905251610a9e919061187b565b6000604051808303816000865af19150503d8060008114610adb576040519150601f19603f3d011682016040523d82523d6000602084013e610ae0565b606091505b50509050806108935760405162461bcd60e51b815260206004820152601660248201527510585d99481dda5d1a191c985dd85b0819985a5b195960521b6044820152606401610642565b6000610b34611186565b60008311610b775760405162461bcd60e51b815260206004820152601060248201526f043616e6e6f74206465706f73697420360841b6044820152606401610642565b6001600160a01b038216610bc05760405162461bcd60e51b815260206004820152601060248201526f24b73b30b634b2103932b1b2b4bb32b960811b6044820152606401610642565b60025415610bec57610bd061042a565b600254610bdd9085611820565b610be79190611837565b610bee565b825b9050610c256001600160a01b037f0000000000000000000000000000000000000000000000000000000000000000163330866111b0565b610c2f8282611217565b8260096000828254610c4191906117c0565b909155505060408051848152602081018390526001600160a01b038416917f73a19dd210f1a7f902193214c0ee91dd35ee5b4d920cba8d519eca65a7b488ca910160405180910390a26105bd6001600655565b610c9c611159565b610ca6600061124d565b565b610cb0611159565b610cd6610cc56005546001600160a01b031690565b6001600160a01b038416908361129f565b5050565b6060600480546104e7906117e6565b6000610cf361042a565b905090565b6000336105b78185856110fa565b6000610d10611186565b60008411610d545760405162461bcd60e51b8152602060048201526011602482015270043616e6e6f74207769746864726177203607c1b6044820152606401610642565b6001600160a01b038316610d9d5760405162461bcd60e51b815260206004820152601060248201526f24b73b30b634b2103932b1b2b4bb32b960811b6044820152606401610642565b336001600160a01b03831614610e1a576000610db9833361101b565b905084811015610e045760405162461bcd60e51b8152602060048201526016602482015275496e73756666696369656e7420616c6c6f77616e636560501b6044820152606401610642565b610e188333610e1388856117d3565b611081565b505b600254610e2561042a565b610e2f9086611820565b610e399190611837565b9050610e4582856112d0565b610e796001600160a01b037f000000000000000000000000000000000000000000000000000000000000000016848361129f565b8060096000828254610e8b91906117d3565b909155505060408051828152602081018690526001600160a01b038516917f92ccf450a286a957af52509bc1c9939d1a6a481783e142e41e2499f0bb66ebc6910160405180910390a26105a26001600655565b610ee6611159565b6001600160a01b038116610f2e5760405162461bcd60e51b815260206004820152600f60248201526e496e76616c6964206164647265737360881b6044820152606401610642565b600780546001600160a01b0319166001600160a01b038316908117909155604051600081527f2f564a83158ad1831793ad3e69257b52f39ece5d49cb0d8746708ecb9ef964da9060200160405180910390a250565b600080610f8f60025490565b905080156105a057610f9f61042a565b6105918285611820565b610fb1611159565b6001600160a01b038116610ff95760405162461bcd60e51b815260206004820152600f60248201526e496e76616c6964206164647265737360881b6044820152606401610642565b600880546001600160a01b0319166001600160a01b0392909216919091179055565b6001600160a01b03918216600090815260016020908152604080832093909416825291909152205490565b61104e611159565b6001600160a01b03811661107857604051631e4fbdf760e01b815260006004820152602401610642565b6108e58161124d565b61108e8383836001611306565b505050565b600061109f848461101b565b90506000198110156110f457818110156110e557604051637dc7a0d960e11b81526001600160a01b03841660048201526024810182905260448101839052606401610642565b6110f484848484036000611306565b50505050565b6001600160a01b03831661112457604051634b637e8f60e11b815260006004820152602401610642565b6001600160a01b03821661114e5760405163ec442f0560e01b815260006004820152602401610642565b61108e8383836113db565b6005546001600160a01b03163314610ca65760405163118cdaa760e01b8152336004820152602401610642565b6002600654036111a957604051633ee5aeb560e01b815260040160405180910390fd5b6002600655565b6040516001600160a01b0384811660248301528381166044830152606482018390526110f49186918216906323b872dd906084015b604051602081830303815290604052915060e01b6020820180516001600160e01b038381831617835250505050611505565b6001600160a01b0382166112415760405163ec442f0560e01b815260006004820152602401610642565b610cd6600083836113db565b600580546001600160a01b038381166001600160a01b0319831681179093556040519116919082907f8be0079c531659141344cd1fd0a4f28419497f9722a3daafe3b4186f6b6457e090600090a35050565b6040516001600160a01b0383811660248301526044820183905261108e91859182169063a9059cbb906064016111e5565b6001600160a01b0382166112fa57604051634b637e8f60e11b815260006004820152602401610642565b610cd6826000836113db565b6001600160a01b0384166113305760405163e602df0560e01b815260006004820152602401610642565b6001600160a01b03831661135a57604051634a1406b160e11b815260006004820152602401610642565b6001600160a01b03808516600090815260016020908152604080832093871683529290522082905580156110f457826001600160a01b0316846001600160a01b03167f8c5be1e5ebec7d5bd14f71427d1e84f3dd0314c0f7b2291e5b200ac8c7c3b925846040516113cd91815260200190565b60405180910390a350505050565b6001600160a01b0383166114065780600260008282546113fb91906117c0565b909155506114789050565b6001600160a01b038316600090815260208190526040902054818110156114595760405163391434e360e21b81526001600160a01b03851660048201526024810182905260448101839052606401610642565b6001600160a01b03841660009081526020819052604090209082900390555b6001600160a01b038216611494576002805482900390556114b3565b6001600160a01b03821660009081526020819052604090208054820190555b816001600160a01b0316836001600160a01b03167fddf252ad1be2c89b69c2b068fc378daa952ba7f163c4a11628f55a4df523b3ef836040516114f891815260200190565b60405180910390a3505050565b600080602060008451602086016000885af180611528576040513d6000823e3d81fd5b50506000513d9150811561154057806001141561154d565b6001600160a01b0384163b155b156110f457604051635274afe760e01b81526001600160a01b0385166004820152602401610642565b60005b83811015611591578181015183820152602001611579565b50506000910152565b60208152600082518060208401526115b9816040850160208701611576565b601f01601f19169190910160400192915050565b6000602082840312156115df57600080fd5b5035919050565b80356001600160a01b03811681146115fd57600080fd5b919050565b6000806040838503121561161557600080fd5b61161e836115e6565b946020939093013593505050565b60008060006060848603121561164157600080fd5b61164a846115e6565b9250611658602085016115e6565b9150604084013590509250925092565b60008060006040848603121561167d57600080fd5b83359250602084013567ffffffffffffffff8082111561169c57600080fd5b818601915086601f8301126116b057600080fd5b8135818111156116bf57600080fd5b8760208285010111156116d157600080fd5b6020830194508093505050509250925092565b600080604083850312156116f757600080fd5b82359150611707602084016115e6565b90509250929050565b60006020828403121561172257600080fd5b6105a2826115e6565b60008060006060848603121561174057600080fd5b83359250611750602085016115e6565b915061175e604085016115e6565b90509250925092565b6000806040838503121561177a57600080fd5b611783836115e6565b9150611707602084016115e6565b6000602082840312156117a357600080fd5b5051919050565b634e487b7160e01b600052601160045260246000fd5b808201808211156105bd576105bd6117aa565b818103818111156105bd576105bd6117aa565b600181811c908216806117fa57607f821691505b60208210810361181a57634e487b7160e01b600052602260045260246000fd5b50919050565b80820281158282048414176105bd576105bd6117aa565b60008261185457634e487b7160e01b600052601260045260246000fd5b500490565b60006020828403121561186b57600080fd5b815180151581146105a257600080fd5b6000825161188d818460208701611576565b9190910192915050565b8481528360208201528183604083013760009101604001908152939250505056fea2646970667358221220ec685b7e568c018e271723bc920453c577a33be2490a950bd3217dc07573493464736f6c63430008140033",
  "linkReferences": {},
  "deployedLinkReferences": {}
}